{
  "transactions": [
    {
      "hash": "0x04c40e4ed7bc5414bc3f4c1df7d5813c74d99c27c51da551062c1d93306c0bd0",
      "transactionType": "CALL",
      "contractName": null,
      "contractAddress": "0x036cbd53842c5426634e7929541ec2318f3dcf7e",
      "function": "approve(address,uint256)",
      "arguments": [
        "0x000000000022D473030F116dDEE9F6B43aC78BA3",
        "115792089237316195423570985008687907853269984665640564039457584007913129639935"
      ],
      "transaction": {
        "from": "0x911d82b108804a18022d0a2621b2fc608def6fca",
        "to": "0x036cbd53842c5426634e7929541ec2318f3dcf7e",
        "gas": "0xdca8",
        "value": "0x0",
        "input": "0x095ea7b3000000000000000000000000000000000022d473030f116ddee9f6b43ac78ba3ffffffffffffffffffffffffffffffffffffffffffffffffffffffffffffffff",
        "nonce": "0x5d",
        "chainId": "0x14a34"
      },
      "additionalContracts": [],
      "isFixedGasLimit": false
    },
    {
      "hash": "0x309dc855e39f0e29f30a62094c6c1897e77b9dac658b9e7a5bbff4c3cd3ff784",
      "transactionType": "CALL",
      "contractName": null,
      "contractAddress": "0x000000000022d473030f116ddee9f6b43ac78ba3",
      "function": "approve(address,address,uint160,uint48)",
      "arguments": [
        "0x036CbD53842c5426634e7929541eC2318f3dCF7e",
        "0x4B2C77d209D3405F41a037Ec6c77F7F5b8e2ca80",
        "1461501637330902918203684832716283019655932542975",
        "281474976710655"
      ],
      "transaction": {
        "from": "0x911d82b108804a18022d0a2621b2fc608def6fca",
        "to": "0x000000000022d473030f116ddee9f6b43ac78ba3",
        "gas": "0xa5bc",
        "value": "0x0",
        "input": "0x87517c45000000000000000000000000036cbd53842c5426634e7929541ec2318f3dcf7e0000000000000000000000004b2c77d209d3405f41a037ec6c77f7f5b8e2ca80000000000000000000000000ffffffffffffffffffffffffffffffffffffffff0000000000000000000000000000000000000000000000000000ffffffffffff",
        "nonce": "0x5e",
        "chainId": "0x14a34"
      },
      "additionalContracts": [],
      "isFixedGasLimit": false
    },
    {
      "hash": "0x967653824e2ea4430e85e43ca90d49a47562be1725e3033c3e67659fe72e81c2",
      "transactionType": "CALL",
      "contractName": null,
      "contractAddress": "0xcb8734448bd46dd307c24f434180b0f2a6df31f2",
      "function": "approve(address,uint256)",
      "arguments": [
        "0x000000000022D473030F116dDEE9F6B43aC78BA3",
        "115792089237316195423570985008687907853269984665640564039457584007913129639935"
      ],
      "transaction": {
        "from": "0x911d82b108804a18022d0a2621b2fc608def6fca",
        "to": "0xcb8734448bd46dd307c24f434180b0f2a6df31f2",
        "gas": "0xa26b",
        "value": "0x0",
        "input": "0x095ea7b3000000000000000000000000000000000022d473030f116ddee9f6b43ac78ba3ffffffffffffffffffffffffffffffffffffffffffffffffffffffffffffffff",
        "nonce": "0x5f",
        "chainId": "0x14a34"
      },
      "additionalContracts": [],
      "isFixedGasLimit": false
    },
    {
      "hash": "0x6ee6d03e868565483a0d0ea6ea56c1b18a570f705cd175ace2bd00d559132ee4",
      "transactionType": "CALL",
      "contractName": null,
      "contractAddress": "0x000000000022d473030f116ddee9f6b43ac78ba3",
      "function": "approve(address,address,uint160,uint48)",
      "arguments": [
        "0xCb8734448Bd46dd307c24F434180b0f2a6Df31f2",
        "0x4B2C77d209D3405F41a037Ec6c77F7F5b8e2ca80",
        "1461501637330902918203684832716283019655932542975",
        "281474976710655"
      ],
      "transaction": {
        "from": "0x911d82b108804a18022d0a2621b2fc608def6fca",
        "to": "0x000000000022d473030f116ddee9f6b43ac78ba3",
        "gas": "0xa5bc",
        "value": "0x0",
        "input": "0x87517c45000000000000000000000000cb8734448bd46dd307c24f434180b0f2a6df31f20000000000000000000000004b2c77d209d3405f41a037ec6c77f7f5b8e2ca80000000000000000000000000ffffffffffffffffffffffffffffffffffffffff0000000000000000000000000000000000000000000000000000ffffffffffff",
        "nonce": "0x60",
        "chainId": "0x14a34"
      },
      "additionalContracts": [],
      "isFixedGasLimit": false
    },
    {
      "hash": "0x5610a1e7c12452d719a54f8a13f705086eaecc6e3e8214f86c422813a6b89afd",
      "transactionType": "CALL",
      "contractName": null,
      "contractAddress": "0x4b2c77d209d3405f41a037ec6c77f7f5b8e2ca80",
      "function": "multicall(bytes[])",
      "arguments": [
        "[0xf7020405000000000000000000000000036cbd53842c5426634e7929541ec2318f3dcf7e000000000000000000000000cb8734448bd46dd307c24f434180b0f2a6df31f2000000000000000000000000000000000000000000000000000000000000006400000000000000000000000000000000000000000000000000000000000000010000000000000000000000000000000000000000000000000000000000000000000000000000000000000000000000000000000100000000000000000000000000000000000000000000000000000000000000000000000000000000000000e00000000000000000000000000000000000000000000000000000000000000000, 0xdd46508f000000000000000000000000000000000000000000000000000000000000004000000000000000000000000000000000000000000000000000000000686fd4ca0000000000000000000000000000000000000000000000000000000000000400000000000000000000000000000000000000000000000000000000000000004000000000000000000000000000000000000000000000000000000000000000800000000000000000000000000000000000000000000000000000000000000004020d14140000000000000000000000000000000000000000000000000000000000000000000000000000000000000000000000000000000000000000000000040000000000000000000000000000000000000000000000000000000000000080000000000000000000000000000000000000000000000000000000000000024000000000000000000000000000000000000000000000000000000000000002a0000000000000000000000000000000000000000000000000000000000000030000000000000000000000000000000000000000000000000000000000000001a0000000000000000000000000036cbd53842c5426634e7929541ec2318f3dcf7e000000000000000000000000cb8734448bd46dd307c24f434180b0f2a6df31f2000000000000000000000000000000000000000000000000000000000000006400000000000000000000000000000000000000000000000000000000000000010000000000000000000000000000000000000000000000000000000000000000ffffffffffffffffffffffffffffffffffffffffffffffffffffffffffffec780000000000000000000000000000000000000000000000000000000000001388000000000000000000000000000000000000000000000000000000000d7941e30000000000000000000000000000000000000000000000000000000002faf081000000000000000000000000000000000000000000000002b5e3af16b1880001000000000000000000000000911d82b108804a18022d0a2621b2fc608def6fca000000000000000000000000000000000000000000000000000000000000018000000000000000000000000000000000000000000000000000000000000000000000000000000000000000000000000000000000000000000000000000000040000000000000000000000000036cbd53842c5426634e7929541ec2318f3dcf7e000000000000000000000000cb8734448bd46dd307c24f434180b0f2a6df31f20000000000000000000000000000000000000000000000000000000000000040000000000000000000000000036cbd53842c5426634e7929541ec2318f3dcf7e000000000000000000000000911d82b108804a18022d0a2621b2fc608def6fca0000000000000000000000000000000000000000000000000000000000000040000000000000000000000000cb8734448bd46dd307c24f434180b0f2a6df31f2000000000000000000000000911d82b108804a18022d0a2621b2fc608def6fca]"
      ],
      "transaction": {
        "from": "0x911d82b108804a18022d0a2621b2fc608def6fca",
        "to": "0x4b2c77d209d3405f41a037ec6c77f7f5b8e2ca80",
        "gas": "0x7c9d9",
        "value": "0x0",
        "input": "0xac9650d800000000000000000000000000000000000000000000000000000000000000200000000000000000000000000000000000000000000000000000000000000002000000000000000000000000000000000000000000000000000000000000004000000000000000000000000000000000000000000000000000000000000001800000000000000000000000000000000000000000000000000000000000000104f7020405000000000000000000000000036cbd53842c5426634e7929541ec2318f3dcf7e000000000000000000000000cb8734448bd46dd307c24f434180b0f2a6df31f2000000000000000000000000000000000000000000000000000000000000006400000000000000000000000000000000000000000000000000000000000000010000000000000000000000000000000000000000000000000000000000000000000000000000000000000000000000000000000100000000000000000000000000000000000000000000000000000000000000000000000000000000000000e00000000000000000000000000000000000000000000000000000000000000000000000000000000000000000000000000000000000000000000000000000000000000000000000000000000000000000000000000000000000000464dd46508f000000000000000000000000000000000000000000000000000000000000004000000000000000000000000000000000000000000000000000000000686fd4ca0000000000000000000000000000000000000000000000000000000000000400000000000000000000000000000000000000000000000000000000000000004000000000000000000000000000000000000000000000000000000000000000800000000000000000000000000000000000000000000000000000000000000004020d14140000000000000000000000000000000000000000000000000000000000000000000000000000000000000000000000000000000000000000000000040000000000000000000000000000000000000000000000000000000000000080000000000000000000000000000000000000000000000000000000000000024000000000000000000000000000000000000000000000000000000000000002a0000000000000000000000000000000000000000000000000000000000000030000000000000000000000000000000000000000000000000000000000000001a0000000000000000000000000036cbd53842c5426634e7929541ec2318f3dcf7e000000000000000000000000cb8734448bd46dd307c24f434180b0f2a6df31f2000000000000000000000000000000000000000000000000000000000000006400000000000000000000000000000000000000000000000000000000000000010000000000000000000000000000000000000000000000000000000000000000ffffffffffffffffffffffffffffffffffffffffffffffffffffffffffffec780000000000000000000000000000000000000000000000000000000000001388000000000000000000000000000000000000000000000000000000000d7941e30000000000000000000000000000000000000000000000000000000002faf081000000000000000000000000000000000000000000000002b5e3af16b1880001000000000000000000000000911d82b108804a18022d0a2621b2fc608def6fca000000000000000000000000000000000000000000000000000000000000018000000000000000000000000000000000000000000000000000000000000000000000000000000000000000000000000000000000000000000000000000000040000000000000000000000000036cbd53842c5426634e7929541ec2318f3dcf7e000000000000000000000000cb8734448bd46dd307c24f434180b0f2a6df31f20000000000000000000000000000000000000000000000000000000000000040000000000000000000000000036cbd53842c5426634e7929541ec2318f3dcf7e000000000000000000000000911d82b108804a18022d0a2621b2fc608def6fca0000000000000000000000000000000000000000000000000000000000000040000000000000000000000000cb8734448bd46dd307c24f434180b0f2a6df31f2000000000000000000000000911d82b108804a18022d0a2621b2fc608def6fca00000000000000000000000000000000000000000000000000000000",
        "nonce": "0x61",
        "chainId": "0x14a34"
      },
      "additionalContracts": [],
      "isFixedGasLimit": false
    }
  ],
  "receipts": [
    {
      "status": "0x1",
      "cumulativeGasUsed": "0x36919a",
      "logs": [
        {
          "address": "0x036cbd53842c5426634e7929541ec2318f3dcf7e",
          "topics": [
            "0x8c5be1e5ebec7d5bd14f71427d1e84f3dd0314c0f7b2291e5b200ac8c7c3b925",
            "0x000000000000000000000000911d82b108804a18022d0a2621b2fc608def6fca",
            "0x000000000000000000000000000000000022d473030f116ddee9f6b43ac78ba3"
          ],
          "data": "0xffffffffffffffffffffffffffffffffffffffffffffffffffffffffffffffff",
          "blockHash": "0x7b2d9bef29ce0e0aabbad676cd6b899be5ce68397825414e5cd72f1d5e85d71a",
          "blockNumber": "0x1ae33f2",
          "transactionHash": "0x04c40e4ed7bc5414bc3f4c1df7d5813c74d99c27c51da551062c1d93306c0bd0",
          "transactionIndex": "0x10",
          "logIndex": "0x72",
          "removed": false
        }
      ],
      "logsBloom": "0x00000000040000000000000000000000000000000000000000000000000000000000000000000000000000000000000000000000800000000000000000200000000000000000000000004000000000000000000000000800000000000000000800002000000000000000000000000000000000000000000000000000000000000000000000000000000000000000000000000000000000000000000000000000020000000000000000000000000000000000000000000000000000000000000000040000000000000000000000000000000000000000000000000000000000000010000000000000000000000020002000000000000000000000000000000000",
      "type": "0x2",
      "transactionHash": "0x04c40e4ed7bc5414bc3f4c1df7d5813c74d99c27c51da551062c1d93306c0bd0",
      "transactionIndex": "0x10",
      "blockHash": "0x7b2d9bef29ce0e0aabbad676cd6b899be5ce68397825414e5cd72f1d5e85d71a",
      "blockNumber": "0x1ae33f2",
      "gasUsed": "0x96e1",
      "effectiveGasPrice": "0xf9e40",
      "from": "0x911d82b108804a18022d0a2621b2fc608def6fca",
      "to": "0x036cbd53842c5426634e7929541ec2318f3dcf7e",
      "contractAddress": null,
      "l1BaseFeeScalar": "0x44d",
      "l1BlobBaseFee": "0xd",
      "l1BlobBaseFeeScalar": "0xa118b",
      "l1Fee": "0x16d8ee",
      "l1GasPrice": "0xcf656",
      "l1GasUsed": "0x640"
    },
    {
      "status": "0x1",
      "cumulativeGasUsed": "0x370998",
      "logs": [
        {
          "address": "0x000000000022d473030f116ddee9f6b43ac78ba3",
          "topics": [
            "0xda9fa7c1b00402c17d0161b249b1ab8bbec047c5a52207b9c112deffd817036b",
            "0x000000000000000000000000911d82b108804a18022d0a2621b2fc608def6fca",
            "0x000000000000000000000000036cbd53842c5426634e7929541ec2318f3dcf7e",
            "0x0000000000000000000000004b2c77d209d3405f41a037ec6c77f7f5b8e2ca80"
          ],
          "data": "0x000000000000000000000000ffffffffffffffffffffffffffffffffffffffff0000000000000000000000000000000000000000000000000000ffffffffffff",
          "blockHash": "0x7b2d9bef29ce0e0aabbad676cd6b899be5ce68397825414e5cd72f1d5e85d71a",
          "blockNumber": "0x1ae33f2",
          "transactionHash": "0x309dc855e39f0e29f30a62094c6c1897e77b9dac658b9e7a5bbff4c3cd3ff784",
          "transactionIndex": "0x11",
          "logIndex": "0x73",
          "removed": false
        }
      ],
      "logsBloom": "0x00010000000000010000000000000000000000000000000000000000000000000000000000000000000000000000000000000000000000000008000010080000000000000000000000000000000000000000000000000000000000000000000000002000000000000000000000000000000000000000000000000000000000000020000040000000000000000000000000000000000000000000000000000000000000000000000000000000000000000000000000000000100000080000000000040000000000000000000000000000000000000000000040000000000000000000000000000000000000000040002000000000000000000000000000000400",
      "type": "0x2",
      "transactionHash": "0x309dc855e39f0e29f30a62094c6c1897e77b9dac658b9e7a5bbff4c3cd3ff784",
      "transactionIndex": "0x11",
      "blockHash": "0x7b2d9bef29ce0e0aabbad676cd6b899be5ce68397825414e5cd72f1d5e85d71a",
      "blockNumber": "0x1ae33f2",
      "gasUsed": "0x77fe",
      "effectiveGasPrice": "0xf9e40",
      "from": "0x911d82b108804a18022d0a2621b2fc608def6fca",
      "to": "0x000000000022d473030f116ddee9f6b43ac78ba3",
      "contractAddress": null,
      "l1BaseFeeScalar": "0x44d",
      "l1BlobBaseFee": "0xd",
      "l1BlobBaseFeeScalar": "0xa118b",
      "l1Fee": "0x196fa3",
      "l1GasPrice": "0xcf656",
      "l1GasUsed": "0x6f5"
    },
    {
      "status": "0x1",
      "cumulativeGasUsed": "0x377f2f",
      "logs": [
        {
          "address": "0xcb8734448bd46dd307c24f434180b0f2a6df31f2",
          "topics": [
            "0x8c5be1e5ebec7d5bd14f71427d1e84f3dd0314c0f7b2291e5b200ac8c7c3b925",
            "0x000000000000000000000000911d82b108804a18022d0a2621b2fc608def6fca",
            "0x000000000000000000000000000000000022d473030f116ddee9f6b43ac78ba3"
          ],
          "data": "0xffffffffffffffffffffffffffffffffffffffffffffffffffffffffffffffff",
          "blockHash": "0x7b2d9bef29ce0e0aabbad676cd6b899be5ce68397825414e5cd72f1d5e85d71a",
          "blockNumber": "0x1ae33f2",
          "transactionHash": "0x967653824e2ea4430e85e43ca90d49a47562be1725e3033c3e67659fe72e81c2",
          "transactionIndex": "0x12",
          "logIndex": "0x74",
          "removed": false
        }
      ],
      "logsBloom": "0x00000000000000000000000000000000000000000000000000000000000000000000000000000000000000000000000000000000800020000000000000200000000000000000000000004000000000000000000000000800000000000000000000002000000000000000000000000000000000000000000000000000000000000000000000000000000000000000000000000000000000000000000000000000420000000000000000000000000000000000000000000000000000000000000000040000000000000000000000000000000000000000000000000000000000000010000000000000000000000000002000000020000000000000000000000000",
      "type": "0x2",
      "transactionHash": "0x967653824e2ea4430e85e43ca90d49a47562be1725e3033c3e67659fe72e81c2",
      "transactionIndex": "0x12",
      "blockHash": "0x7b2d9bef29ce0e0aabbad676cd6b899be5ce68397825414e5cd72f1d5e85d71a",
      "blockNumber": "0x1ae33f2",
      "gasUsed": "0x7597",
      "effectiveGasPrice": "0xf9e40",
      "from": "0x911d82b108804a18022d0a2621b2fc608def6fca",
      "to": "0xcb8734448bd46dd307c24f434180b0f2a6df31f2",
      "contractAddress": null,
      "l1BaseFeeScalar": "0x44d",
      "l1BlobBaseFee": "0xd",
      "l1BlobBaseFeeScalar": "0xa118b",
      "l1Fee": "0x16d8ee",
      "l1GasPrice": "0xcf656",
      "l1GasUsed": "0x640"
    },
    {
      "status": "0x1",
      "cumulativeGasUsed": "0x37f72d",
      "logs": [
        {
          "address": "0x000000000022d473030f116ddee9f6b43ac78ba3",
          "topics": [
            "0xda9fa7c1b00402c17d0161b249b1ab8bbec047c5a52207b9c112deffd817036b",
            "0x000000000000000000000000911d82b108804a18022d0a2621b2fc608def6fca",
            "0x000000000000000000000000cb8734448bd46dd307c24f434180b0f2a6df31f2",
            "0x0000000000000000000000004b2c77d209d3405f41a037ec6c77f7f5b8e2ca80"
          ],
          "data": "0x000000000000000000000000ffffffffffffffffffffffffffffffffffffffff0000000000000000000000000000000000000000000000000000ffffffffffff",
          "blockHash": "0x7b2d9bef29ce0e0aabbad676cd6b899be5ce68397825414e5cd72f1d5e85d71a",
          "blockNumber": "0x1ae33f2",
          "transactionHash": "0x6ee6d03e868565483a0d0ea6ea56c1b18a570f705cd175ace2bd00d559132ee4",
          "transactionIndex": "0x13",
          "logIndex": "0x75",
          "removed": false
        }
      ],
      "logsBloom": "0x00010000000000010000000000000000000000000000000000000000080000000000000000000000000000000200000000000000000000000008000010080000000000000000000000000000000000000000000000000000000000000000000000002000000000000000000000000000000000000000000000000000000000000020000000000000000000000000000000000000000000000000000000000000000000000000000000000000000000000000000000000000000000080000000000040000000000000000000000000000000000000000000040000000000000000000000000000000000000000000002000000000000000000040000000000400",
      "type": "0x2",
      "transactionHash": "0x6ee6d03e868565483a0d0ea6ea56c1b18a570f705cd175ace2bd00d559132ee4",
      "transactionIndex": "0x13",
      "blockHash": "0x7b2d9bef29ce0e0aabbad676cd6b899be5ce68397825414e5cd72f1d5e85d71a",
      "blockNumber": "0x1ae33f2",
      "gasUsed": "0x77fe",
      "effectiveGasPrice": "0xf9e40",
      "from": "0x911d82b108804a18022d0a2621b2fc608def6fca",
      "to": "0x000000000022d473030f116ddee9f6b43ac78ba3",
      "contractAddress": null,
      "l1BaseFeeScalar": "0x44d",
      "l1BlobBaseFee": "0xd",
      "l1BlobBaseFeeScalar": "0xa118b",
      "l1Fee": "0x196fa3",
      "l1GasPrice": "0xcf656",
      "l1GasUsed": "0x6f5"
    },
    {
      "status": "0x1",
      "cumulativeGasUsed": "0x4012c8",
      "logs": [
        {
          "address": "0x4b2c77d209d3405f41a037ec6c77f7f5b8e2ca80",
          "topics": [
            "0xddf252ad1be2c89b69c2b068fc378daa952ba7f163c4a11628f55a4df523b3ef",
            "0x0000000000000000000000000000000000000000000000000000000000000000",
            "0x000000000000000000000000911d82b108804a18022d0a2621b2fc608def6fca",
            "0x000000000000000000000000000000000000000000000000000000000000090e"
          ],
          "data": "0x",
          "blockHash": "0x7b2d9bef29ce0e0aabbad676cd6b899be5ce68397825414e5cd72f1d5e85d71a",
          "blockNumber": "0x1ae33f2",
          "transactionHash": "0x5610a1e7c12452d719a54f8a13f705086eaecc6e3e8214f86c422813a6b89afd",
          "transactionIndex": "0x15",
          "logIndex": "0x7a",
          "removed": false
        },
        {
          "address": "0x05e73354cfdd6745c338b50bcfdfa3aa6fa03408",
          "topics": [
            "0xf208f4912782fd25c7f114ca3723a2d5dd6f3bcc3ac8db5af63baa85f711d5ec",
            "0xc118cf4590c1da5eb44904b582d76dbf28d65f09bae29d7079e71ce047466b06",
            "0x0000000000000000000000004b2c77d209d3405f41a037ec6c77f7f5b8e2ca80"
          ],
          "data": "0xffffffffffffffffffffffffffffffffffffffffffffffffffffffffffffec780000000000000000000000000000000000000000000000000000000000001388000000000000000000000000000000000000000000000000000000000d7941e3000000000000000000000000000000000000000000000000000000000000090e",
          "blockHash": "0x7b2d9bef29ce0e0aabbad676cd6b899be5ce68397825414e5cd72f1d5e85d71a",
          "blockNumber": "0x1ae33f2",
          "transactionHash": "0x5610a1e7c12452d719a54f8a13f705086eaecc6e3e8214f86c422813a6b89afd",
          "transactionIndex": "0x15",
          "logIndex": "0x7b",
          "removed": false
        },
        {
          "address": "0x036cbd53842c5426634e7929541ec2318f3dcf7e",
          "topics": [
            "0xddf252ad1be2c89b69c2b068fc378daa952ba7f163c4a11628f55a4df523b3ef",
            "0x000000000000000000000000911d82b108804a18022d0a2621b2fc608def6fca",
            "0x00000000000000000000000005e73354cfdd6745c338b50bcfdfa3aa6fa03408"
          ],
          "data": "0x0000000000000000000000000000000000000000000000000000000002faf080",
          "blockHash": "0x7b2d9bef29ce0e0aabbad676cd6b899be5ce68397825414e5cd72f1d5e85d71a",
          "blockNumber": "0x1ae33f2",
          "transactionHash": "0x5610a1e7c12452d719a54f8a13f705086eaecc6e3e8214f86c422813a6b89afd",
          "transactionIndex": "0x15",
          "logIndex": "0x7c",
          "removed": false
        },
        {
          "address": "0xcb8734448bd46dd307c24f434180b0f2a6df31f2",
          "topics": [
            "0xddf252ad1be2c89b69c2b068fc378daa952ba7f163c4a11628f55a4df523b3ef",
            "0x000000000000000000000000911d82b108804a18022d0a2621b2fc608def6fca",
            "0x00000000000000000000000005e73354cfdd6745c338b50bcfdfa3aa6fa03408"
          ],
          "data": "0x0000000000000000000000000000000000000000000000000000000002faf080",
          "blockHash": "0x7b2d9bef29ce0e0aabbad676cd6b899be5ce68397825414e5cd72f1d5e85d71a",
          "blockNumber": "0x1ae33f2",
          "transactionHash": "0x5610a1e7c12452d719a54f8a13f705086eaecc6e3e8214f86c422813a6b89afd",
          "transactionIndex": "0x15",
          "logIndex": "0x7d",
          "removed": false
        }
      ],
      "logsBloom": "0x00000000040000010000008000000000000000000000000000000000000000000100000100000000000000000000000000000000000020000008000010000800000040000010000000000008000000000000000000100000000001008000000800002000020000002000000000000800000000000000000000000010000000000000000805000000000000000000000000000000000000000000400000000000400004000000000000000000000000000000000000000000000000000000000000040002001000000000000000000000000000000000000000000000000020000000000000000000000000000820002004000020000000000000000000000000",
      "type": "0x2",
      "transactionHash": "0x5610a1e7c12452d719a54f8a13f705086eaecc6e3e8214f86c422813a6b89afd",
      "transactionIndex": "0x15",
      "blockHash": "0x7b2d9bef29ce0e0aabbad676cd6b899be5ce68397825414e5cd72f1d5e85d71a",
      "blockNumber": "0x1ae33f2",
      "gasUsed": "0x55351",
      "effectiveGasPrice": "0xf9e40",
      "from": "0x911d82b108804a18022d0a2621b2fc608def6fca",
      "to": "0x4b2c77d209d3405f41a037ec6c77f7f5b8e2ca80",
      "contractAddress": null,
      "l1BaseFeeScalar": "0x44d",
      "l1BlobBaseFee": "0xd",
      "l1BlobBaseFeeScalar": "0xa118b",
      "l1Fee": "0x474df4",
      "l1GasPrice": "0xcf656",
      "l1GasUsed": "0x1381"
    }
  ],
  "libraries": [],
  "pending": [],
  "returns": {},
  "timestamp": 1752155845,
  "chain": 84532,
  "commit": "510f4c1"
}