{
  "transactions": [
    {
      "hash": "0x8a459972d05e6a0454b5dab65cbc487547b00f8f98fc42aa97311360938db4a4",
      "transactionType": "CALL",
      "contractName": null,
      "contractAddress": "0x036cbd53842c5426634e7929541ec2318f3dcf7e",
      "function": "approve(address,uint256)",
      "arguments": [
        "0x000000000022D473030F116dDEE9F6B43aC78BA3",
        "115792089237316195423570985008687907853269984665640564039457584007913129639935"
      ],
      "transaction": {
        "from": "0x911d82b108804a18022d0a2621b2fc608def6fca",
        "to": "0x036cbd53842c5426634e7929541ec2318f3dcf7e",
        "gas": "0xdca8",
        "value": "0x0",
        "input": "0x095ea7b3000000000000000000000000000000000022d473030f116ddee9f6b43ac78ba3ffffffffffffffffffffffffffffffffffffffffffffffffffffffffffffffff",
        "nonce": "0x6c",
        "chainId": "0x14a34"
      },
      "additionalContracts": [],
      "isFixedGasLimit": false
    },
    {
      "hash": "0xaa636f05838d899e09844a86ddcba3d82dff8f22497823f74cba34af043be3c1",
      "transactionType": "CALL",
      "contractName": null,
      "contractAddress": "0x000000000022d473030f116ddee9f6b43ac78ba3",
      "function": "approve(address,address,uint160,uint48)",
      "arguments": [
        "0x036CbD53842c5426634e7929541eC2318f3dCF7e",
        "0x4B2C77d209D3405F41a037Ec6c77F7F5b8e2ca80",
        "1461501637330902918203684832716283019655932542975",
        "281474976710655"
      ],
      "transaction": {
        "from": "0x911d82b108804a18022d0a2621b2fc608def6fca",
        "to": "0x000000000022d473030f116ddee9f6b43ac78ba3",
        "gas": "0x96a0",
        "value": "0x0",
        "input": "0x87517c45000000000000000000000000036cbd53842c5426634e7929541ec2318f3dcf7e0000000000000000000000004b2c77d209d3405f41a037ec6c77f7f5b8e2ca80000000000000000000000000ffffffffffffffffffffffffffffffffffffffff0000000000000000000000000000000000000000000000000000ffffffffffff",
        "nonce": "0x6d",
        "chainId": "0x14a34"
      },
      "additionalContracts": [],
      "isFixedGasLimit": false
    },
    {
      "hash": "0x832d40cd4c5405251dd80de5e6530dfa84b5a9d79f61b811fbe5a76894a17638",
      "transactionType": "CALL",
      "contractName": null,
      "contractAddress": "0x5f6d35d1add891416969194709ddd374b6d26253",
      "function": "approve(address,uint256)",
      "arguments": [
        "0x000000000022D473030F116dDEE9F6B43aC78BA3",
        "115792089237316195423570985008687907853269984665640564039457584007913129639935"
      ],
      "transaction": {
        "from": "0x911d82b108804a18022d0a2621b2fc608def6fca",
        "to": "0x5f6d35d1add891416969194709ddd374b6d26253",
        "gas": "0x10da9",
        "value": "0x0",
        "input": "0x095ea7b3000000000000000000000000000000000022d473030f116ddee9f6b43ac78ba3ffffffffffffffffffffffffffffffffffffffffffffffffffffffffffffffff",
        "nonce": "0x6e",
        "chainId": "0x14a34"
      },
      "additionalContracts": [],
      "isFixedGasLimit": false
    },
    {
      "hash": "0x443a833dedb885000a0ef9a821c64dfacc5005b3841a341fc4d0c4f650b68015",
      "transactionType": "CALL",
      "contractName": null,
      "contractAddress": "0x000000000022d473030f116ddee9f6b43ac78ba3",
      "function": "approve(address,address,uint160,uint48)",
      "arguments": [
        "0x5f6D35D1Add891416969194709ddd374B6D26253",
        "0x4B2C77d209D3405F41a037Ec6c77F7F5b8e2ca80",
        "1461501637330902918203684832716283019655932542975",
        "281474976710655"
      ],
      "transaction": {
        "from": "0x911d82b108804a18022d0a2621b2fc608def6fca",
        "to": "0x000000000022d473030f116ddee9f6b43ac78ba3",
        "gas": "0x1112d",
        "value": "0x0",
        "input": "0x87517c450000000000000000000000005f6d35d1add891416969194709ddd374b6d262530000000000000000000000004b2c77d209d3405f41a037ec6c77f7f5b8e2ca80000000000000000000000000ffffffffffffffffffffffffffffffffffffffff0000000000000000000000000000000000000000000000000000ffffffffffff",
        "nonce": "0x6f",
        "chainId": "0x14a34"
      },
      "additionalContracts": [],
      "isFixedGasLimit": false
    },
    {
      "hash": "0x6d2dafee70eca73b32eb647ee063fce62a9d878100e9912518e68702389caa2b",
      "transactionType": "CALL",
      "contractName": null,
      "contractAddress": "0x4b2c77d209d3405f41a037ec6c77f7f5b8e2ca80",
      "function": "multicall(bytes[])",
      "arguments": [
        "[0xf7020405000000000000000000000000036cbd53842c5426634e7929541ec2318f3dcf7e0000000000000000000000005f6d35d1add891416969194709ddd374b6d26253000000000000000000000000000000000000000000000000000000000000006400000000000000000000000000000000000000000000000000000000000000010000000000000000000000000000000000000000000000000000000000000000000000000000000000000000000000000000000100000000000000000000000000000000000000000000000000000000000000000000000000000000000000e00000000000000000000000000000000000000000000000000000000000000000, 0xdd46508f000000000000000000000000000000000000000000000000000000000000004000000000000000000000000000000000000000000000000000000000686ff9340000000000000000000000000000000000000000000000000000000000000400000000000000000000000000000000000000000000000000000000000000004000000000000000000000000000000000000000000000000000000000000000800000000000000000000000000000000000000000000000000000000000000004020d14140000000000000000000000000000000000000000000000000000000000000000000000000000000000000000000000000000000000000000000000040000000000000000000000000000000000000000000000000000000000000080000000000000000000000000000000000000000000000000000000000000024000000000000000000000000000000000000000000000000000000000000002a0000000000000000000000000000000000000000000000000000000000000030000000000000000000000000000000000000000000000000000000000000001a0000000000000000000000000036cbd53842c5426634e7929541ec2318f3dcf7e0000000000000000000000005f6d35d1add891416969194709ddd374b6d26253000000000000000000000000000000000000000000000000000000000000006400000000000000000000000000000000000000000000000000000000000000010000000000000000000000000000000000000000000000000000000000000000ffffffffffffffffffffffffffffffffffffffffffffffffffffffffffffec7800000000000000000000000000000000000000000000000000000000000013880000000000000000000000000000000000000000000000000000000002b1d9fa00000000000000000000000000000000000000000000000000000000009896810000000000000000000000000000000000000000000000000000000000989681000000000000000000000000911d82b108804a18022d0a2621b2fc608def6fca000000000000000000000000000000000000000000000000000000000000018000000000000000000000000000000000000000000000000000000000000000000000000000000000000000000000000000000000000000000000000000000040000000000000000000000000036cbd53842c5426634e7929541ec2318f3dcf7e0000000000000000000000005f6d35d1add891416969194709ddd374b6d262530000000000000000000000000000000000000000000000000000000000000040000000000000000000000000036cbd53842c5426634e7929541ec2318f3dcf7e000000000000000000000000911d82b108804a18022d0a2621b2fc608def6fca00000000000000000000000000000000000000000000000000000000000000400000000000000000000000005f6d35d1add891416969194709ddd374b6d26253000000000000000000000000911d82b108804a18022d0a2621b2fc608def6fca]"
      ],
      "transaction": {
        "from": "0x911d82b108804a18022d0a2621b2fc608def6fca",
        "to": "0x4b2c77d209d3405f41a037ec6c77f7f5b8e2ca80",
        "gas": "0xa1545",
        "value": "0x0",
        "input": "0xac9650d800000000000000000000000000000000000000000000000000000000000000200000000000000000000000000000000000000000000000000000000000000002000000000000000000000000000000000000000000000000000000000000004000000000000000000000000000000000000000000000000000000000000001800000000000000000000000000000000000000000000000000000000000000104f7020405000000000000000000000000036cbd53842c5426634e7929541ec2318f3dcf7e0000000000000000000000005f6d35d1add891416969194709ddd374b6d26253000000000000000000000000000000000000000000000000000000000000006400000000000000000000000000000000000000000000000000000000000000010000000000000000000000000000000000000000000000000000000000000000000000000000000000000000000000000000000100000000000000000000000000000000000000000000000000000000000000000000000000000000000000e00000000000000000000000000000000000000000000000000000000000000000000000000000000000000000000000000000000000000000000000000000000000000000000000000000000000000000000000000000000000000464dd46508f000000000000000000000000000000000000000000000000000000000000004000000000000000000000000000000000000000000000000000000000686ff9340000000000000000000000000000000000000000000000000000000000000400000000000000000000000000000000000000000000000000000000000000004000000000000000000000000000000000000000000000000000000000000000800000000000000000000000000000000000000000000000000000000000000004020d14140000000000000000000000000000000000000000000000000000000000000000000000000000000000000000000000000000000000000000000000040000000000000000000000000000000000000000000000000000000000000080000000000000000000000000000000000000000000000000000000000000024000000000000000000000000000000000000000000000000000000000000002a0000000000000000000000000000000000000000000000000000000000000030000000000000000000000000000000000000000000000000000000000000001a0000000000000000000000000036cbd53842c5426634e7929541ec2318f3dcf7e0000000000000000000000005f6d35d1add891416969194709ddd374b6d26253000000000000000000000000000000000000000000000000000000000000006400000000000000000000000000000000000000000000000000000000000000010000000000000000000000000000000000000000000000000000000000000000ffffffffffffffffffffffffffffffffffffffffffffffffffffffffffffec7800000000000000000000000000000000000000000000000000000000000013880000000000000000000000000000000000000000000000000000000002b1d9fa00000000000000000000000000000000000000000000000000000000009896810000000000000000000000000000000000000000000000000000000000989681000000000000000000000000911d82b108804a18022d0a2621b2fc608def6fca000000000000000000000000000000000000000000000000000000000000018000000000000000000000000000000000000000000000000000000000000000000000000000000000000000000000000000000000000000000000000000000040000000000000000000000000036cbd53842c5426634e7929541ec2318f3dcf7e0000000000000000000000005f6d35d1add891416969194709ddd374b6d262530000000000000000000000000000000000000000000000000000000000000040000000000000000000000000036cbd53842c5426634e7929541ec2318f3dcf7e000000000000000000000000911d82b108804a18022d0a2621b2fc608def6fca00000000000000000000000000000000000000000000000000000000000000400000000000000000000000005f6d35d1add891416969194709ddd374b6d26253000000000000000000000000911d82b108804a18022d0a2621b2fc608def6fca00000000000000000000000000000000000000000000000000000000",
        "nonce": "0x70",
        "chainId": "0x14a34"
      },
      "additionalContracts": [],
      "isFixedGasLimit": false
    }
  ],
  "receipts": [
    {
      "status": "0x1",
      "cumulativeGasUsed": "0x2e7598",
      "logs": [
        {
          "address": "0x036cbd53842c5426634e7929541ec2318f3dcf7e",
          "topics": [
            "0x8c5be1e5ebec7d5bd14f71427d1e84f3dd0314c0f7b2291e5b200ac8c7c3b925",
            "0x000000000000000000000000911d82b108804a18022d0a2621b2fc608def6fca",
            "0x000000000000000000000000000000000022d473030f116ddee9f6b43ac78ba3"
          ],
          "data": "0xffffffffffffffffffffffffffffffffffffffffffffffffffffffffffffffff",
          "blockHash": "0xfc8aa78ced369747f9c856d3cdd8f3e0c5069338575b4dd5812b01353cc66d35",
          "blockNumber": "0x1ae4627",
          "transactionHash": "0x8a459972d05e6a0454b5dab65cbc487547b00f8f98fc42aa97311360938db4a4",
          "transactionIndex": "0x8",
          "logIndex": "0xa0",
          "removed": false
        }
      ],
      "logsBloom": "0x00000000040000000000000000000000000000000000000000000000000000000000000000000000000000000000000000000000800000000000000000200000000000000000000000004000000000000000000000000800000000000000000800002000000000000000000000000000000000000000000000000000000000000000000000000000000000000000000000000000000000000000000000000000020000000000000000000000000000000000000000000000000000000000000000040000000000000000000000000000000000000000000000000000000000000010000000000000000000000020002000000000000000000000000000000000",
      "type": "0x2",
      "transactionHash": "0x8a459972d05e6a0454b5dab65cbc487547b00f8f98fc42aa97311360938db4a4",
      "transactionIndex": "0x8",
      "blockHash": "0xfc8aa78ced369747f9c856d3cdd8f3e0c5069338575b4dd5812b01353cc66d35",
      "blockNumber": "0x1ae4627",
      "gasUsed": "0x96e1",
      "effectiveGasPrice": "0xf428a",
      "from": "0x911d82b108804a18022d0a2621b2fc608def6fca",
      "to": "0x036cbd53842c5426634e7929541ec2318f3dcf7e",
      "contractAddress": null,
      "l1BaseFeeScalar": "0x44d",
      "l1BlobBaseFee": "0xb",
      "l1BlobBaseFeeScalar": "0xa118b",
      "l1Fee": "0x14e5c2",
      "l1GasPrice": "0xbdb44",
      "l1GasUsed": "0x640"
    },
    {
      "status": "0x1",
      "cumulativeGasUsed": "0x2ee2a6",
      "logs": [
        {
          "address": "0x000000000022d473030f116ddee9f6b43ac78ba3",
          "topics": [
            "0xda9fa7c1b00402c17d0161b249b1ab8bbec047c5a52207b9c112deffd817036b",
            "0x000000000000000000000000911d82b108804a18022d0a2621b2fc608def6fca",
            "0x000000000000000000000000036cbd53842c5426634e7929541ec2318f3dcf7e",
            "0x0000000000000000000000004b2c77d209d3405f41a037ec6c77f7f5b8e2ca80"
          ],
          "data": "0x000000000000000000000000ffffffffffffffffffffffffffffffffffffffff0000000000000000000000000000000000000000000000000000ffffffffffff",
          "blockHash": "0xfc8aa78ced369747f9c856d3cdd8f3e0c5069338575b4dd5812b01353cc66d35",
          "blockNumber": "0x1ae4627",
          "transactionHash": "0xaa636f05838d899e09844a86ddcba3d82dff8f22497823f74cba34af043be3c1",
          "transactionIndex": "0x9",
          "logIndex": "0xa1",
          "removed": false
        }
      ],
      "logsBloom": "0x00010000000000010000000000000000000000000000000000000000000000000000000000000000000000000000000000000000000000000008000010080000000000000000000000000000000000000000000000000000000000000000000000002000000000000000000000000000000000000000000000000000000000000020000040000000000000000000000000000000000000000000000000000000000000000000000000000000000000000000000000000000100000080000000000040000000000000000000000000000000000000000000040000000000000000000000000000000000000000040002000000000000000000000000000000400",
      "type": "0x2",
      "transactionHash": "0xaa636f05838d899e09844a86ddcba3d82dff8f22497823f74cba34af043be3c1",
      "transactionIndex": "0x9",
      "blockHash": "0xfc8aa78ced369747f9c856d3cdd8f3e0c5069338575b4dd5812b01353cc66d35",
      "blockNumber": "0x1ae4627",
      "gasUsed": "0x6d0e",
      "effectiveGasPrice": "0xf428a",
      "from": "0x911d82b108804a18022d0a2621b2fc608def6fca",
      "to": "0x000000000022d473030f116ddee9f6b43ac78ba3",
      "contractAddress": null,
      "l1BaseFeeScalar": "0x44d",
      "l1BlobBaseFee": "0xb",
      "l1BlobBaseFeeScalar": "0xa118b",
      "l1Fee": "0x1743e8",
      "l1GasPrice": "0xbdb44",
      "l1GasUsed": "0x6f5"
    },
    {
      "status": "0x1",
      "cumulativeGasUsed": "0x2f9b09",
      "logs": [
        {
          "address": "0x5f6d35d1add891416969194709ddd374b6d26253",
          "topics": [
            "0x8c5be1e5ebec7d5bd14f71427d1e84f3dd0314c0f7b2291e5b200ac8c7c3b925",
            "0x000000000000000000000000911d82b108804a18022d0a2621b2fc608def6fca",
            "0x000000000000000000000000000000000022d473030f116ddee9f6b43ac78ba3"
          ],
          "data": "0xffffffffffffffffffffffffffffffffffffffffffffffffffffffffffffffff",
          "blockHash": "0xfc8aa78ced369747f9c856d3cdd8f3e0c5069338575b4dd5812b01353cc66d35",
          "blockNumber": "0x1ae4627",
          "transactionHash": "0x832d40cd4c5405251dd80de5e6530dfa84b5a9d79f61b811fbe5a76894a17638",
          "transactionIndex": "0xa",
          "logIndex": "0xa2",
          "removed": false
        }
      ],
      "logsBloom": "0x00000000000000000000000000000000000000000000000000000000000000000000000000000000000000000000000000000000800000000000000000200000000000000000000000004000000000000000000000000800000000000000000000002000000000000000000000000000000000000000000000000000000000000000000000000000000400000000000000000000000000000000000000000000020000000000000000000040000000000000000000000000000000000000000000040000000000000000000000000000000010000000000000000000000000000010000000000000000000000000002000000000000000000000000000000000",
      "type": "0x2",
      "transactionHash": "0x832d40cd4c5405251dd80de5e6530dfa84b5a9d79f61b811fbe5a76894a17638",
      "transactionIndex": "0xa",
      "blockHash": "0xfc8aa78ced369747f9c856d3cdd8f3e0c5069338575b4dd5812b01353cc66d35",
      "blockNumber": "0x1ae4627",
      "gasUsed": "0xb863",
      "effectiveGasPrice": "0xf428a",
      "from": "0x911d82b108804a18022d0a2621b2fc608def6fca",
      "to": "0x5f6d35d1add891416969194709ddd374b6d26253",
      "contractAddress": null,
      "l1BaseFeeScalar": "0x44d",
      "l1BlobBaseFee": "0xb",
      "l1BlobBaseFeeScalar": "0xa118b",
      "l1Fee": "0x14e5c2",
      "l1GasPrice": "0xbdb44",
      "l1GasUsed": "0x640"
    },
    {
      "status": "0x1",
      "cumulativeGasUsed": "0x3055d3",
      "logs": [
        {
          "address": "0x000000000022d473030f116ddee9f6b43ac78ba3",
          "topics": [
            "0xda9fa7c1b00402c17d0161b249b1ab8bbec047c5a52207b9c112deffd817036b",
            "0x000000000000000000000000911d82b108804a18022d0a2621b2fc608def6fca",
            "0x0000000000000000000000005f6d35d1add891416969194709ddd374b6d26253",
            "0x0000000000000000000000004b2c77d209d3405f41a037ec6c77f7f5b8e2ca80"
          ],
          "data": "0x000000000000000000000000ffffffffffffffffffffffffffffffffffffffff0000000000000000000000000000000000000000000000000000ffffffffffff",
          "blockHash": "0xfc8aa78ced369747f9c856d3cdd8f3e0c5069338575b4dd5812b01353cc66d35",
          "blockNumber": "0x1ae4627",
          "transactionHash": "0x443a833dedb885000a0ef9a821c64dfacc5005b3841a341fc4d0c4f650b68015",
          "transactionIndex": "0xb",
          "logIndex": "0xa3",
          "removed": false
        }
      ],
      "logsBloom": "0x00010000000000010000000000010000000000000000000000000000000000000000000000000000000000000040000000000000000000000008000010080000000000000000000000000000000000000000000000000000000000000000000000002000000000000000000000000000000000000000000000000000000000000020000000000000000000000000000000000000000000000000000000000000000000000000000000000000000000000000000000000004000000080000000000040000000000000000000000000000000000000000000040000000000000000000000000000000000000000000002000000000000000000000000000000400",
      "type": "0x2",
      "transactionHash": "0x443a833dedb885000a0ef9a821c64dfacc5005b3841a341fc4d0c4f650b68015",
      "transactionIndex": "0xb",
      "blockHash": "0xfc8aa78ced369747f9c856d3cdd8f3e0c5069338575b4dd5812b01353cc66d35",
      "blockNumber": "0x1ae4627",
      "gasUsed": "0xbaca",
      "effectiveGasPrice": "0xf428a",
      "from": "0x911d82b108804a18022d0a2621b2fc608def6fca",
      "to": "0x000000000022d473030f116ddee9f6b43ac78ba3",
      "contractAddress": null,
      "l1BaseFeeScalar": "0x44d",
      "l1BlobBaseFee": "0xb",
      "l1BlobBaseFeeScalar": "0xa118b",
      "l1Fee": "0x1770a8",
      "l1GasPrice": "0xbdb44",
      "l1GasUsed": "0x702"
    },
    {
      "status": "0x1",
      "cumulativeGasUsed": "0x373acc",
      "logs": [
        {
          "address": "0x05e73354cfdd6745c338b50bcfdfa3aa6fa03408",
          "topics": [
            "0xdd466e674ea557f56295e2d0218a125ea4b4f0f6f3307b95f85e6110838d6438",
            "0xbb061a4a6a7a7c0472b15a39812cc6bad12a7b8e381441bdc8ef98faf97aa526",
            "0x000000000000000000000000036cbd53842c5426634e7929541ec2318f3dcf7e",
            "0x0000000000000000000000005f6d35d1add891416969194709ddd374b6d26253"
          ],
          "data": "0x00000000000000000000000000000000000000000000000000000000000000640000000000000000000000000000000000000000000000000000000000000001000000000000000000000000000000000000000000000000000000000000000000000000000000000000000000000000000000010000000000000000000000000000000000000000000000000000000000000000000000000000000000000000",
          "blockHash": "0xfc8aa78ced369747f9c856d3cdd8f3e0c5069338575b4dd5812b01353cc66d35",
          "blockNumber": "0x1ae4627",
          "transactionHash": "0x6d2dafee70eca73b32eb647ee063fce62a9d878100e9912518e68702389caa2b",
          "transactionIndex": "0xc",
          "logIndex": "0xa4",
          "removed": false
        },
        {
          "address": "0x4b2c77d209d3405f41a037ec6c77f7f5b8e2ca80",
          "topics": [
            "0xddf252ad1be2c89b69c2b068fc378daa952ba7f163c4a11628f55a4df523b3ef",
            "0x0000000000000000000000000000000000000000000000000000000000000000",
            "0x000000000000000000000000911d82b108804a18022d0a2621b2fc608def6fca",
            "0x0000000000000000000000000000000000000000000000000000000000000928"
          ],
          "data": "0x",
          "blockHash": "0xfc8aa78ced369747f9c856d3cdd8f3e0c5069338575b4dd5812b01353cc66d35",
          "blockNumber": "0x1ae4627",
          "transactionHash": "0x6d2dafee70eca73b32eb647ee063fce62a9d878100e9912518e68702389caa2b",
          "transactionIndex": "0xc",
          "logIndex": "0xa5",
          "removed": false
        },
        {
          "address": "0x05e73354cfdd6745c338b50bcfdfa3aa6fa03408",
          "topics": [
            "0xf208f4912782fd25c7f114ca3723a2d5dd6f3bcc3ac8db5af63baa85f711d5ec",
            "0xbb061a4a6a7a7c0472b15a39812cc6bad12a7b8e381441bdc8ef98faf97aa526",
            "0x0000000000000000000000004b2c77d209d3405f41a037ec6c77f7f5b8e2ca80"
          ],
          "data": "0xffffffffffffffffffffffffffffffffffffffffffffffffffffffffffffec7800000000000000000000000000000000000000000000000000000000000013880000000000000000000000000000000000000000000000000000000002b1d9fa0000000000000000000000000000000000000000000000000000000000000928",
          "blockHash": "0xfc8aa78ced369747f9c856d3cdd8f3e0c5069338575b4dd5812b01353cc66d35",
          "blockNumber": "0x1ae4627",
          "transactionHash": "0x6d2dafee70eca73b32eb647ee063fce62a9d878100e9912518e68702389caa2b",
          "transactionIndex": "0xc",
          "logIndex": "0xa6",
          "removed": false
        },
        {
          "address": "0x036cbd53842c5426634e7929541ec2318f3dcf7e",
          "topics": [
            "0xddf252ad1be2c89b69c2b068fc378daa952ba7f163c4a11628f55a4df523b3ef",
            "0x000000000000000000000000911d82b108804a18022d0a2621b2fc608def6fca",
            "0x00000000000000000000000005e73354cfdd6745c338b50bcfdfa3aa6fa03408"
          ],
          "data": "0x0000000000000000000000000000000000000000000000000000000000989680",
          "blockHash": "0xfc8aa78ced369747f9c856d3cdd8f3e0c5069338575b4dd5812b01353cc66d35",
          "blockNumber": "0x1ae4627",
          "transactionHash": "0x6d2dafee70eca73b32eb647ee063fce62a9d878100e9912518e68702389caa2b",
          "transactionIndex": "0xc",
          "logIndex": "0xa7",
          "removed": false
        },
        {
          "address": "0x5f6d35d1add891416969194709ddd374b6d26253",
          "topics": [
            "0xddf252ad1be2c89b69c2b068fc378daa952ba7f163c4a11628f55a4df523b3ef",
            "0x000000000000000000000000911d82b108804a18022d0a2621b2fc608def6fca",
            "0x00000000000000000000000005e73354cfdd6745c338b50bcfdfa3aa6fa03408"
          ],
          "data": "0x0000000000000000000000000000000000000000000000000000000000989680",
          "blockHash": "0xfc8aa78ced369747f9c856d3cdd8f3e0c5069338575b4dd5812b01353cc66d35",
          "blockNumber": "0x1ae4627",
          "transactionHash": "0x6d2dafee70eca73b32eb647ee063fce62a9d878100e9912518e68702389caa2b",
          "transactionIndex": "0xc",
          "logIndex": "0xa8",
          "removed": false
        }
      ],
      "logsBloom": "0x00000000040000010000000000010000000000000100000000000000000000000100000100000800000000000040000000000000000000000008000010000800000000000010000000000008000000000000000000100000000000008000000800002000020008000000000000000800000000000000000000000010008000000000000045000008000400000000000000000001000000000000000100200000000004000000000000000040000000000000000000000004100000000000000000040002001000000000000000000000000010000000000000000000000020000000000000000000000000000860102004000000000000000000000000000000",
      "type": "0x2",
      "transactionHash": "0x6d2dafee70eca73b32eb647ee063fce62a9d878100e9912518e68702389caa2b",
      "transactionIndex": "0xc",
      "blockHash": "0xfc8aa78ced369747f9c856d3cdd8f3e0c5069338575b4dd5812b01353cc66d35",
      "blockNumber": "0x1ae4627",
      "gasUsed": "0x6e4f9",
      "effectiveGasPrice": "0xf428a",
      "from": "0x911d82b108804a18022d0a2621b2fc608def6fca",
      "to": "0x4b2c77d209d3405f41a037ec6c77f7f5b8e2ca80",
      "contractAddress": null,
      "l1BaseFeeScalar": "0x44d",
      "l1BlobBaseFee": "0xb",
      "l1BlobBaseFeeScalar": "0xa118b",
      "l1Fee": "0x405854",
      "l1GasPrice": "0xbdb44",
      "l1GasUsed": "0x133e"
    }
  ],
  "libraries": [],
  "pending": [],
  "returns": {},
  "timestamp": 1752165166,
  "chain": 84532,
  "commit": "1f47b46"
}