{
  "transactions": [
    {
      "hash": "0x9768682a83d7a4ee1a30927d09573b36a685e7f225ff8c065039ee39739b3eea",
      "transactionType": "CALL",
      "contractName": null,
      "contractAddress": "0x65675dcb0558030eae5fc3e42a41df576cc437ef",
      "function": "approve(address,uint256)",
      "arguments": [
        "0x00000000000044a361Ae3cAc094c9D1b14Eece97",
        "115792089237316195423570985008687907853269984665640564039457584007913129639935"
      ],
      "transaction": {
        "from": "0x911d82b108804a18022d0a2621b2fc608def6fca",
        "to": "0x65675dcb0558030eae5fc3e42a41df576cc437ef",
        "gas": "0x9be8",
        "value": "0x0",
        "input": "0x095ea7b300000000000000000000000000000000000044a361ae3cac094c9d1b14eece97ffffffffffffffffffffffffffffffffffffffffffffffffffffffffffffffff",
        "nonce": "0x112",
        "chainId": "0xaa36a7"
      },
      "additionalContracts": [],
      "isFixedGasLimit": false
    },
    {
      "hash": "0xaeaab6dc6a5371a0fd30ef55625b52db8f9ab232b6aee6074cfe45a7241914f5",
      "transactionType": "CALL",
      "contractName": null,
      "contractAddress": "0x1c7d4b196cb0c7b01d743fbc6116a902379c7238",
      "function": "approve(address,uint256)",
      "arguments": [
        "0x00000000000044a361Ae3cAc094c9D1b14Eece97",
        "115792089237316195423570985008687907853269984665640564039457584007913129639935"
      ],
      "transaction": {
        "from": "0x911d82b108804a18022d0a2621b2fc608def6fca",
        "to": "0x1c7d4b196cb0c7b01d743fbc6116a902379c7238",
        "gas": "0xd055",
        "value": "0x0",
        "input": "0x095ea7b300000000000000000000000000000000000044a361ae3cac094c9d1b14eece97ffffffffffffffffffffffffffffffffffffffffffffffffffffffffffffffff",
        "nonce": "0x113",
        "chainId": "0xaa36a7"
      },
      "additionalContracts": [],
      "isFixedGasLimit": false
    },
    {
      "hash": "0x6cb4a95a918ae4d91ba23bf2e6bf844c5cc80581856c42de48360530ec41e2a4",
      "transactionType": "CALL",
      "contractName": null,
      "contractAddress": "0x00000000000044a361ae3cac094c9d1b14eece97",
      "function": "swapExactTokensForTokens(uint256,uint256,bool,(address,address,uint24,int24,address),bytes,address,uint256)",
      "arguments": [
        "1000000",
        "0",
        "false",
        "(0x1c7D4B196Cb0C7B01d743Fbc6116a902379C7238, 0x65675DCB0558030eaE5fc3E42a41df576cc437Ef, 500, 10, 0x0000000000000000000000000000000000000000)",
        "0x",
        "0x5b73C5498c1E3b4dbA84de0F1833c4a029d90519",
        "1752430428"
      ],
      "transaction": {
        "from": "0x911d82b108804a18022d0a2621b2fc608def6fca",
        "to": "0x00000000000044a361ae3cac094c9d1b14eece97",
        "gas": "0x37cbc",
        "value": "0x0",
        "input": "0xb1a0d57100000000000000000000000000000000000000000000000000000000000f4240000000000000000000000000000000000000000000000000000000000000000000000000000000000000000000000000000000000000000000000000000000000000000000000000000000001c7d4b196cb0c7b01d743fbc6116a902379c723800000000000000000000000065675dcb0558030eae5fc3e42a41df576cc437ef00000000000000000000000000000000000000000000000000000000000001f4000000000000000000000000000000000000000000000000000000000000000a000000000000000000000000000000000000000000000000000000000000000000000000000000000000000000000000000000000000000000000000000001600000000000000000000000005b73c5498c1e3b4dba84de0f1833c4a029d90519000000000000000000000000000000000000000000000000000000006873f75c0000000000000000000000000000000000000000000000000000000000000000",
        "nonce": "0x114",
        "chainId": "0xaa36a7"
      },
      "additionalContracts": [],
      "isFixedGasLimit": false
    }
  ],
  "receipts": [
    {
      "status": "0x1",
      "cumulativeGasUsed": "0x17a2043",
      "logs": [
        {
          "address": "0x65675dcb0558030eae5fc3e42a41df576cc437ef",
          "topics": [
            "0x8c5be1e5ebec7d5bd14f71427d1e84f3dd0314c0f7b2291e5b200ac8c7c3b925",
            "0x000000000000000000000000911d82b108804a18022d0a2621b2fc608def6fca",
            "0x00000000000000000000000000000000000044a361ae3cac094c9d1b14eece97"
          ],
          "data": "0xffffffffffffffffffffffffffffffffffffffffffffffffffffffffffffffff",
          "blockHash": "0xaae638960ff4bd9b2fc60b8d7d9393b99256aca643a96f0e5254c2d7f976621a",
          "blockNumber": "0x859d54",
          "transactionHash": "0x9768682a83d7a4ee1a30927d09573b36a685e7f225ff8c065039ee39739b3eea",
          "transactionIndex": "0xd3",
          "logIndex": "0x175",
          "removed": false
        }
      ],
      "logsBloom": "0x00000000000000000000000000000000000000000000000000000000000000000000000000000000000000000000000000000000000000000000000040200000000000000000000000000000000000000000000000000000000000000000000000002000000000000000000000000000000000000000000000000000000040000000000000000000000000000000000200000000000000000000000000000000020000000000000000040000000000000000000000000000000000000000000000040000000000000000000000000000000000000000000000000000000000010010000000000000000000000000002000000000000020000000000000000000",
      "type": "0x2",
      "transactionHash": "0x9768682a83d7a4ee1a30927d09573b36a685e7f225ff8c065039ee39739b3eea",
      "transactionIndex": "0xd3",
      "blockHash": "0xaae638960ff4bd9b2fc60b8d7d9393b99256aca643a96f0e5254c2d7f976621a",
      "blockNumber": "0x859d54",
      "gasUsed": "0x6a9b",
      "effectiveGasPrice": "0x172d23",
      "from": "0x911d82b108804a18022d0a2621b2fc608def6fca",
      "to": "0x65675dcb0558030eae5fc3e42a41df576cc437ef",
      "contractAddress": null
    },
    {
      "status": "0x1",
      "cumulativeGasUsed": "0x17ab718",
      "logs": [
        {
          "address": "0x1c7d4b196cb0c7b01d743fbc6116a902379c7238",
          "topics": [
            "0x8c5be1e5ebec7d5bd14f71427d1e84f3dd0314c0f7b2291e5b200ac8c7c3b925",
            "0x000000000000000000000000911d82b108804a18022d0a2621b2fc608def6fca",
            "0x00000000000000000000000000000000000044a361ae3cac094c9d1b14eece97"
          ],
          "data": "0xffffffffffffffffffffffffffffffffffffffffffffffffffffffffffffffff",
          "blockHash": "0xaae638960ff4bd9b2fc60b8d7d9393b99256aca643a96f0e5254c2d7f976621a",
          "blockNumber": "0x859d54",
          "transactionHash": "0xaeaab6dc6a5371a0fd30ef55625b52db8f9ab232b6aee6074cfe45a7241914f5",
          "transactionIndex": "0xd4",
          "logIndex": "0x176",
          "removed": false
        }
      ],
      "logsBloom": "0x00000000000000000000000000000000000000000000000000000000000200000000000000000000000000000000000000000000000000000000000040200000000000000000000000000000000000000000000000000000000000000000000000002000000000000000000000000000000000000000000000000000000040000000000000100000000000000000000000000000000000000000000000000000020000000000000000000000000000000000000000000000000000000000000000040000000000000000000000000000000000000000000000000000000000010010000000000000000010000000002000000000000000000000000000000000",
      "type": "0x2",
      "transactionHash": "0xaeaab6dc6a5371a0fd30ef55625b52db8f9ab232b6aee6074cfe45a7241914f5",
      "transactionIndex": "0xd4",
      "blockHash": "0xaae638960ff4bd9b2fc60b8d7d9393b99256aca643a96f0e5254c2d7f976621a",
      "blockNumber": "0x859d54",
      "gasUsed": "0x96d5",
      "effectiveGasPrice": "0x172d23",
      "from": "0x911d82b108804a18022d0a2621b2fc608def6fca",
      "to": "0x1c7d4b196cb0c7b01d743fbc6116a902379c7238",
      "contractAddress": null
    },
    {
      "status": "0x1",
      "cumulativeGasUsed": "0x17db8ae",
      "logs": [
        {
          "address": "0xe03a1074c86cfedd5c142c4f04f1a1536e203543",
          "topics": [
            "0x40e9cecb9f5f1f1c5b9c97dec2917b7ee92e57ba5563708daca94dd84ad7112f",
            "0x3f7c20dc9a208115dd9c142920c2820cde1d272fc22bb4b3f939e6c9c1479e8c",
            "0x00000000000000000000000000000000000044a361ae3cac094c9d1b14eece97"
          ],
          "data": "0x00000000000000000000000000000000000000000000000000000000000f43defffffffffffffffffffffffffffffffffffffffffffffffffffffffffff0bdc0000000000000000000000000000000000000000100000e1578c1fda610079d9f0000000000000000000000000000000000000000000000000000000040ef7fe3000000000000000000000000000000000000000000000000000000000000000000000000000000000000000000000000000000000000000000000000000001f4",
          "blockHash": "0xaae638960ff4bd9b2fc60b8d7d9393b99256aca643a96f0e5254c2d7f976621a",
          "blockNumber": "0x859d54",
          "transactionHash": "0x6cb4a95a918ae4d91ba23bf2e6bf844c5cc80581856c42de48360530ec41e2a4",
          "transactionIndex": "0xd6",
          "logIndex": "0x178",
          "removed": false
        },
        {
          "address": "0x65675dcb0558030eae5fc3e42a41df576cc437ef",
          "topics": [
            "0xddf252ad1be2c89b69c2b068fc378daa952ba7f163c4a11628f55a4df523b3ef",
            "0x000000000000000000000000911d82b108804a18022d0a2621b2fc608def6fca",
            "0x000000000000000000000000e03a1074c86cfedd5c142c4f04f1a1536e203543"
          ],
          "data": "0x00000000000000000000000000000000000000000000000000000000000f4240",
          "blockHash": "0xaae638960ff4bd9b2fc60b8d7d9393b99256aca643a96f0e5254c2d7f976621a",
          "blockNumber": "0x859d54",
          "transactionHash": "0x6cb4a95a918ae4d91ba23bf2e6bf844c5cc80581856c42de48360530ec41e2a4",
          "transactionIndex": "0xd6",
          "logIndex": "0x179",
          "removed": false
        },
        {
          "address": "0x1c7d4b196cb0c7b01d743fbc6116a902379c7238",
          "topics": [
            "0xddf252ad1be2c89b69c2b068fc378daa952ba7f163c4a11628f55a4df523b3ef",
            "0x000000000000000000000000e03a1074c86cfedd5c142c4f04f1a1536e203543",
            "0x0000000000000000000000005b73c5498c1e3b4dba84de0f1833c4a029d90519"
          ],
          "data": "0x00000000000000000000000000000000000000000000000000000000000f43de",
          "blockHash": "0xaae638960ff4bd9b2fc60b8d7d9393b99256aca643a96f0e5254c2d7f976621a",
          "blockNumber": "0x859d54",
          "transactionHash": "0x6cb4a95a918ae4d91ba23bf2e6bf844c5cc80581856c42de48360530ec41e2a4",
          "transactionIndex": "0xd6",
          "logIndex": "0x17a",
          "removed": false
        }
      ],
      "logsBloom": "0x00000000000000000000000000000000000000000000000000000000000200000000000000000000000000000000000000000100040000000000000040000000000000000000000000000008000000000000000000000020008000000000000000002000000020000000000080000000008000000000100000000010000040000000000000100000000010000000000201000000000000000000000000000000000000000000000000040002000000000000000000000000000000000000000000040002000000000000000000000000000000000000000000001000000000011000000000000000004010000000002000000000000020000000000000000200",
      "type": "0x2",
      "transactionHash": "0x6cb4a95a918ae4d91ba23bf2e6bf844c5cc80581856c42de48360530ec41e2a4",
      "transactionIndex": "0xd6",
      "blockHash": "0xaae638960ff4bd9b2fc60b8d7d9393b99256aca643a96f0e5254c2d7f976621a",
      "blockNumber": "0x859d54",
      "gasUsed": "0x2626b",
      "effectiveGasPrice": "0x172d23",
      "from": "0x911d82b108804a18022d0a2621b2fc608def6fca",
      "to": "0x00000000000044a361ae3cac094c9d1b14eece97",
      "contractAddress": null
    }
  ],
  "libraries": [],
  "pending": [],
  "returns": {},
  "timestamp": 1752426853,
  "chain": 11155111,
  "commit": "c51abc8"
}