{
  "transactions": [
    {
      "hash": "0x35e6fb6cc99e3943101532f427780cc1d647b8b34429dab22eb118cee2d5df85",
      "transactionType": "CALL",
      "contractName": null,
      "contractAddress": "0x65675dcb0558030eae5fc3e42a41df576cc437ef",
      "function": "approve(address,uint256)",
      "arguments": [
        "0x00000000000044a361Ae3cAc094c9D1b14Eece97",
        "115792089237316195423570985008687907853269984665640564039457584007913129639935"
      ],
      "transaction": {
        "from": "0x911d82b108804a18022d0a2621b2fc608def6fca",
        "to": "0x65675dcb0558030eae5fc3e42a41df576cc437ef",
        "gas": "0xfe9e",
        "value": "0x0",
        "input": "0x095ea7b300000000000000000000000000000000000044a361ae3cac094c9d1b14eece97ffffffffffffffffffffffffffffffffffffffffffffffffffffffffffffffff",
        "nonce": "0x10f",
        "chainId": "0xaa36a7"
      },
      "additionalContracts": [],
      "isFixedGasLimit": false
    },
    {
      "hash": "0x91d1a8e658ef78a56bee05554affc7bb434c5e254d9792c63bc6f95ba0957dab",
      "transactionType": "CALL",
      "contractName": null,
      "contractAddress": "0x1c7d4b196cb0c7b01d743fbc6116a902379c7238",
      "function": "approve(address,uint256)",
      "arguments": [
        "0x00000000000044a361Ae3cAc094c9D1b14Eece97",
        "115792089237316195423570985008687907853269984665640564039457584007913129639935"
      ],
      "transaction": {
        "from": "0x911d82b108804a18022d0a2621b2fc608def6fca",
        "to": "0x1c7d4b196cb0c7b01d743fbc6116a902379c7238",
        "gas": "0x13e48",
        "value": "0x0",
        "input": "0x095ea7b300000000000000000000000000000000000044a361ae3cac094c9d1b14eece97ffffffffffffffffffffffffffffffffffffffffffffffffffffffffffffffff",
        "nonce": "0x110",
        "chainId": "0xaa36a7"
      },
      "additionalContracts": [],
      "isFixedGasLimit": false
    },
    {
      "hash": "0x6c9fefcd91a4cfeae9d7c387aa2b4089fdd025e4c622ddc897acac2b66aae1be",
      "transactionType": "CALL",
      "contractName": null,
      "contractAddress": "0x00000000000044a361ae3cac094c9d1b14eece97",
      "function": "swapExactTokensForTokens(uint256,uint256,bool,(address,address,uint24,int24,address),bytes,address,uint256)",
      "arguments": [
        "1000000",
        "0",
        "true",
        "(0x1c7D4B196Cb0C7B01d743Fbc6116a902379C7238, 0x65675DCB0558030eaE5fc3E42a41df576cc437Ef, 500, 10, 0x0000000000000000000000000000000000000000)",
        "0x",
        "0x5b73C5498c1E3b4dbA84de0F1833c4a029d90519",
        "1752429600"
      ],
      "transaction": {
        "from": "0x911d82b108804a18022d0a2621b2fc608def6fca",
        "to": "0x00000000000044a361ae3cac094c9d1b14eece97",
        "gas": "0x39e24",
        "value": "0x0",
        "input": "0xb1a0d57100000000000000000000000000000000000000000000000000000000000f4240000000000000000000000000000000000000000000000000000000000000000000000000000000000000000000000000000000000000000000000000000000010000000000000000000000001c7d4b196cb0c7b01d743fbc6116a902379c723800000000000000000000000065675dcb0558030eae5fc3e42a41df576cc437ef00000000000000000000000000000000000000000000000000000000000001f4000000000000000000000000000000000000000000000000000000000000000a000000000000000000000000000000000000000000000000000000000000000000000000000000000000000000000000000000000000000000000000000001600000000000000000000000005b73c5498c1e3b4dba84de0f1833c4a029d90519000000000000000000000000000000000000000000000000000000006873f4200000000000000000000000000000000000000000000000000000000000000000",
        "nonce": "0x111",
        "chainId": "0xaa36a7"
      },
      "additionalContracts": [],
      "isFixedGasLimit": false
    }
  ],
  "receipts": [
    {
      "status": "0x1",
      "cumulativeGasUsed": "0x1a7d21e",
      "logs": [
        {
          "address": "0x65675dcb0558030eae5fc3e42a41df576cc437ef",
          "topics": [
            "0x8c5be1e5ebec7d5bd14f71427d1e84f3dd0314c0f7b2291e5b200ac8c7c3b925",
            "0x000000000000000000000000911d82b108804a18022d0a2621b2fc608def6fca",
            "0x00000000000000000000000000000000000044a361ae3cac094c9d1b14eece97"
          ],
          "data": "0xffffffffffffffffffffffffffffffffffffffffffffffffffffffffffffffff",
          "blockHash": "0x3b24027574f8209505058756fc665e353cfa371099f123fdfb4fa2508c34a34b",
          "blockNumber": "0x859d11",
          "transactionHash": "0x35e6fb6cc99e3943101532f427780cc1d647b8b34429dab22eb118cee2d5df85",
          "transactionIndex": "0xfe",
          "logIndex": "0x1a8",
          "removed": false
        }
      ],
      "logsBloom": "0x00000000000000000000000000000000000000000000000000000000000000000000000000000000000000000000000000000000000000000000000040200000000000000000000000000000000000000000000000000000000000000000000000002000000000000000000000000000000000000000000000000000000040000000000000000000000000000000000200000000000000000000000000000000020000000000000000040000000000000000000000000000000000000000000000040000000000000000000000000000000000000000000000000000000000010010000000000000000000000000002000000000000020000000000000000000",
      "type": "0x2",
      "transactionHash": "0x35e6fb6cc99e3943101532f427780cc1d647b8b34429dab22eb118cee2d5df85",
      "transactionIndex": "0xfe",
      "blockHash": "0x3b24027574f8209505058756fc665e353cfa371099f123fdfb4fa2508c34a34b",
      "blockNumber": "0x859d11",
      "gasUsed": "0xb857",
      "effectiveGasPrice": "0x1475a0",
      "from": "0x911d82b108804a18022d0a2621b2fc608def6fca",
      "to": "0x65675dcb0558030eae5fc3e42a41df576cc437ef",
      "contractAddress": null
    },
    {
      "status": "0x1",
      "cumulativeGasUsed": "0x1a8abbf",
      "logs": [
        {
          "address": "0x1c7d4b196cb0c7b01d743fbc6116a902379c7238",
          "topics": [
            "0x8c5be1e5ebec7d5bd14f71427d1e84f3dd0314c0f7b2291e5b200ac8c7c3b925",
            "0x000000000000000000000000911d82b108804a18022d0a2621b2fc608def6fca",
            "0x00000000000000000000000000000000000044a361ae3cac094c9d1b14eece97"
          ],
          "data": "0xffffffffffffffffffffffffffffffffffffffffffffffffffffffffffffffff",
          "blockHash": "0x3b24027574f8209505058756fc665e353cfa371099f123fdfb4fa2508c34a34b",
          "blockNumber": "0x859d11",
          "transactionHash": "0x91d1a8e658ef78a56bee05554affc7bb434c5e254d9792c63bc6f95ba0957dab",
          "transactionIndex": "0xff",
          "logIndex": "0x1a9",
          "removed": false
        }
      ],
      "logsBloom": "0x00000000000000000000000000000000000000000000000000000000000200000000000000000000000000000000000000000000000000000000000040200000000000000000000000000000000000000000000000000000000000000000000000002000000000000000000000000000000000000000000000000000000040000000000000100000000000000000000000000000000000000000000000000000020000000000000000000000000000000000000000000000000000000000000000040000000000000000000000000000000000000000000000000000000000010010000000000000000010000000002000000000000000000000000000000000",
      "type": "0x2",
      "transactionHash": "0x91d1a8e658ef78a56bee05554affc7bb434c5e254d9792c63bc6f95ba0957dab",
      "transactionIndex": "0xff",
      "blockHash": "0x3b24027574f8209505058756fc665e353cfa371099f123fdfb4fa2508c34a34b",
      "blockNumber": "0x859d11",
      "gasUsed": "0xd9a1",
      "effectiveGasPrice": "0x1475a0",
      "from": "0x911d82b108804a18022d0a2621b2fc608def6fca",
      "to": "0x1c7d4b196cb0c7b01d743fbc6116a902379c7238",
      "contractAddress": null
    },
    {
      "status": "0x1",
      "cumulativeGasUsed": "0x1ab2502",
      "logs": [
        {
          "address": "0xe03a1074c86cfedd5c142c4f04f1a1536e203543",
          "topics": [
            "0x40e9cecb9f5f1f1c5b9c97dec2917b7ee92e57ba5563708daca94dd84ad7112f",
            "0x3f7c20dc9a208115dd9c142920c2820cde1d272fc22bb4b3f939e6c9c1479e8c",
            "0x00000000000000000000000000000000000044a361ae3cac094c9d1b14eece97"
          ],
          "data": "0xfffffffffffffffffffffffffffffffffffffffffffffffffffffffffff0bdc000000000000000000000000000000000000000000000000000000000000f3cb70000000000000000000000000000000000000000ffc3edec2135184015eaf2bc0000000000000000000000000000000000000000000000000000000040ef7fe3ffffffffffffffffffffffffffffffffffffffffffffffffffffffffffffffed00000000000000000000000000000000000000000000000000000000000001f4",
          "blockHash": "0x3b24027574f8209505058756fc665e353cfa371099f123fdfb4fa2508c34a34b",
          "blockNumber": "0x859d11",
          "transactionHash": "0x6c9fefcd91a4cfeae9d7c387aa2b4089fdd025e4c622ddc897acac2b66aae1be",
          "transactionIndex": "0x100",
          "logIndex": "0x1aa",
          "removed": false
        },
        {
          "address": "0x1c7d4b196cb0c7b01d743fbc6116a902379c7238",
          "topics": [
            "0xddf252ad1be2c89b69c2b068fc378daa952ba7f163c4a11628f55a4df523b3ef",
            "0x000000000000000000000000911d82b108804a18022d0a2621b2fc608def6fca",
            "0x000000000000000000000000e03a1074c86cfedd5c142c4f04f1a1536e203543"
          ],
          "data": "0x00000000000000000000000000000000000000000000000000000000000f4240",
          "blockHash": "0x3b24027574f8209505058756fc665e353cfa371099f123fdfb4fa2508c34a34b",
          "blockNumber": "0x859d11",
          "transactionHash": "0x6c9fefcd91a4cfeae9d7c387aa2b4089fdd025e4c622ddc897acac2b66aae1be",
          "transactionIndex": "0x100",
          "logIndex": "0x1ab",
          "removed": false
        },
        {
          "address": "0x65675dcb0558030eae5fc3e42a41df576cc437ef",
          "topics": [
            "0xddf252ad1be2c89b69c2b068fc378daa952ba7f163c4a11628f55a4df523b3ef",
            "0x000000000000000000000000e03a1074c86cfedd5c142c4f04f1a1536e203543",
            "0x0000000000000000000000005b73c5498c1e3b4dba84de0f1833c4a029d90519"
          ],
          "data": "0x00000000000000000000000000000000000000000000000000000000000f3cb7",
          "blockHash": "0x3b24027574f8209505058756fc665e353cfa371099f123fdfb4fa2508c34a34b",
          "blockNumber": "0x859d11",
          "transactionHash": "0x6c9fefcd91a4cfeae9d7c387aa2b4089fdd025e4c622ddc897acac2b66aae1be",
          "transactionIndex": "0x100",
          "logIndex": "0x1ac",
          "removed": false
        }
      ],
      "logsBloom": "0x00000000000000000000000000000000000000000000000000000000000200000000000000000000000000000000000000000100040000000000000040000000000000000000000000000008000000000000000000000020008000000000000000002000000020000000000080000000008000000000100000000010000040000000000000100000000010000000000201000000000000000000000000000000000000000000000000040002000000000000000000000000000000000000000000040002000000000000000000000000000000000000000000001000000000011000000000000000004010000000002000000000000020000000000000000200",
      "type": "0x2",
      "transactionHash": "0x6c9fefcd91a4cfeae9d7c387aa2b4089fdd025e4c622ddc897acac2b66aae1be",
      "transactionIndex": "0x100",
      "blockHash": "0x3b24027574f8209505058756fc665e353cfa371099f123fdfb4fa2508c34a34b",
      "blockNumber": "0x859d11",
      "gasUsed": "0x27943",
      "effectiveGasPrice": "0x1475a0",
      "from": "0x911d82b108804a18022d0a2621b2fc608def6fca",
      "to": "0x00000000000044a361ae3cac094c9d1b14eece97",
      "contractAddress": null
    }
  ],
  "libraries": [],
  "pending": [],
  "returns": {},
  "timestamp": 1752426037,
  "chain": 11155111,
  "commit": "c51abc8"
}