{
  "transactions": [
    {
      "hash": "0x6f2c9b7df8cb586093e6b36f1177135addf9825039b5d66fd8ddd166323027bd",
      "transactionType": "CALL",
      "contractName": null,
      "contractAddress": "0x1c7d4b196cb0c7b01d743fbc6116a902379c7238",
      "function": "approve(address,uint256)",
      "arguments": [
        "0x000000000022D473030F116dDEE9F6B43aC78BA3",
        "115792089237316195423570985008687907853269984665640564039457584007913129639935"
      ],
      "transaction": {
        "from": "0x911d82b108804a18022d0a2621b2fc608def6fca",
        "to": "0x1c7d4b196cb0c7b01d743fbc6116a902379c7238",
        "gas": "0xdca8",
        "value": "0x0",
        "input": "0x095ea7b3000000000000000000000000000000000022d473030f116ddee9f6b43ac78ba3ffffffffffffffffffffffffffffffffffffffffffffffffffffffffffffffff",
        "nonce": "0x10a",
        "chainId": "0xaa36a7"
      },
      "additionalContracts": [],
      "isFixedGasLimit": false
    },
    {
      "hash": "0xcde0f07e045a332ddeb761e52c8f70e63fcab275f3b501d23e5f7b2fb0c679ea",
      "transactionType": "CALL",
      "contractName": null,
      "contractAddress": "0x000000000022d473030f116ddee9f6b43ac78ba3",
      "function": "approve(address,address,uint160,uint48)",
      "arguments": [
        "0x1c7D4B196Cb0C7B01d743Fbc6116a902379C7238",
        "0x429ba70129df741B2Ca2a85BC3A2a3328e5c09b4",
        "1461501637330902918203684832716283019655932542975",
        "281474976710655"
      ],
      "transaction": {
        "from": "0x911d82b108804a18022d0a2621b2fc608def6fca",
        "to": "0x000000000022d473030f116ddee9f6b43ac78ba3",
        "gas": "0xa5bc",
        "value": "0x0",
        "input": "0x87517c450000000000000000000000001c7d4b196cb0c7b01d743fbc6116a902379c7238000000000000000000000000429ba70129df741b2ca2a85bc3a2a3328e5c09b4000000000000000000000000ffffffffffffffffffffffffffffffffffffffff0000000000000000000000000000000000000000000000000000ffffffffffff",
        "nonce": "0x10b",
        "chainId": "0xaa36a7"
      },
      "additionalContracts": [],
      "isFixedGasLimit": false
    },
    {
      "hash": "0xfcff8e1f7afee20d74e2ed7c2f0d91eaec7bb5bb178f1c71ac3aaa4cf586a311",
      "transactionType": "CALL",
      "contractName": null,
      "contractAddress": "0x65675dcb0558030eae5fc3e42a41df576cc437ef",
      "function": "approve(address,uint256)",
      "arguments": [
        "0x000000000022D473030F116dDEE9F6B43aC78BA3",
        "115792089237316195423570985008687907853269984665640564039457584007913129639935"
      ],
      "transaction": {
        "from": "0x911d82b108804a18022d0a2621b2fc608def6fca",
        "to": "0x65675dcb0558030eae5fc3e42a41df576cc437ef",
        "gas": "0x10da9",
        "value": "0x0",
        "input": "0x095ea7b3000000000000000000000000000000000022d473030f116ddee9f6b43ac78ba3ffffffffffffffffffffffffffffffffffffffffffffffffffffffffffffffff",
        "nonce": "0x10c",
        "chainId": "0xaa36a7"
      },
      "additionalContracts": [],
      "isFixedGasLimit": false
    },
    {
      "hash": "0xcf468e762349266acca261036ebc82741549edfecb9cb3e9b26cd54ef33f1921",
      "transactionType": "CALL",
      "contractName": null,
      "contractAddress": "0x000000000022d473030f116ddee9f6b43ac78ba3",
      "function": "approve(address,address,uint160,uint48)",
      "arguments": [
        "0x65675DCB0558030eaE5fc3E42a41df576cc437Ef",
        "0x429ba70129df741B2Ca2a85BC3A2a3328e5c09b4",
        "1461501637330902918203684832716283019655932542975",
        "281474976710655"
      ],
      "transaction": {
        "from": "0x911d82b108804a18022d0a2621b2fc608def6fca",
        "to": "0x000000000022d473030f116ddee9f6b43ac78ba3",
        "gas": "0x1112d",
        "value": "0x0",
        "input": "0x87517c4500000000000000000000000065675dcb0558030eae5fc3e42a41df576cc437ef000000000000000000000000429ba70129df741b2ca2a85bc3a2a3328e5c09b4000000000000000000000000ffffffffffffffffffffffffffffffffffffffff0000000000000000000000000000000000000000000000000000ffffffffffff",
        "nonce": "0x10d",
        "chainId": "0xaa36a7"
      },
      "additionalContracts": [],
      "isFixedGasLimit": false
    },
    {
      "hash": "0xd0dfe525465efd7073ac8b1ec482b9f909879c11b16188e222be7d5f177e0fae",
      "transactionType": "CALL",
      "contractName": null,
      "contractAddress": "0x429ba70129df741b2ca2a85bc3a2a3328e5c09b4",
      "function": "multicall(bytes[])",
      "arguments": [
        "[0xf70204050000000000000000000000001c7d4b196cb0c7b01d743fbc6116a902379c723800000000000000000000000065675dcb0558030eae5fc3e42a41df576cc437ef00000000000000000000000000000000000000000000000000000000000001f4000000000000000000000000000000000000000000000000000000000000000a0000000000000000000000000000000000000000000000000000000000000000000000000000000000000000000000000000000100000000000000000000000000000000000000000000000000000000000000000000000000000000000000e00000000000000000000000000000000000000000000000000000000000000000, 0xdd46508f0000000000000000000000000000000000000000000000000000000000000040000000000000000000000000000000000000000000000000000000006873f1680000000000000000000000000000000000000000000000000000000000000400000000000000000000000000000000000000000000000000000000000000004000000000000000000000000000000000000000000000000000000000000000800000000000000000000000000000000000000000000000000000000000000004020d14140000000000000000000000000000000000000000000000000000000000000000000000000000000000000000000000000000000000000000000000040000000000000000000000000000000000000000000000000000000000000080000000000000000000000000000000000000000000000000000000000000024000000000000000000000000000000000000000000000000000000000000002a0000000000000000000000000000000000000000000000000000000000000030000000000000000000000000000000000000000000000000000000000000001a00000000000000000000000001c7d4b196cb0c7b01d743fbc6116a902379c723800000000000000000000000065675dcb0558030eae5fc3e42a41df576cc437ef00000000000000000000000000000000000000000000000000000000000001f4000000000000000000000000000000000000000000000000000000000000000a0000000000000000000000000000000000000000000000000000000000000000ffffffffffffffffffffffffffffffffffffffffffffffffffffffffffff3cb0000000000000000000000000000000000000000000000000000000000000c3500000000000000000000000000000000000000000000000000000000040ef7fe3000000000000000000000000000000000000000000000000000000003b9aca01000000000000000000000000000000000000000000000000000000003b9aca01000000000000000000000000911d82b108804a18022d0a2621b2fc608def6fca0000000000000000000000000000000000000000000000000000000000000180000000000000000000000000000000000000000000000000000000000000000000000000000000000000000000000000000000000000000000000000000000400000000000000000000000001c7d4b196cb0c7b01d743fbc6116a902379c723800000000000000000000000065675dcb0558030eae5fc3e42a41df576cc437ef00000000000000000000000000000000000000000000000000000000000000400000000000000000000000001c7d4b196cb0c7b01d743fbc6116a902379c7238000000000000000000000000911d82b108804a18022d0a2621b2fc608def6fca000000000000000000000000000000000000000000000000000000000000004000000000000000000000000065675dcb0558030eae5fc3e42a41df576cc437ef000000000000000000000000911d82b108804a18022d0a2621b2fc608def6fca]"
      ],
      "transaction": {
        "from": "0x911d82b108804a18022d0a2621b2fc608def6fca",
        "to": "0x429ba70129df741b2ca2a85bc3a2a3328e5c09b4",
        "gas": "0xa15e9",
        "value": "0x0",
        "input": "0xac9650d800000000000000000000000000000000000000000000000000000000000000200000000000000000000000000000000000000000000000000000000000000002000000000000000000000000000000000000000000000000000000000000004000000000000000000000000000000000000000000000000000000000000001800000000000000000000000000000000000000000000000000000000000000104f70204050000000000000000000000001c7d4b196cb0c7b01d743fbc6116a902379c723800000000000000000000000065675dcb0558030eae5fc3e42a41df576cc437ef00000000000000000000000000000000000000000000000000000000000001f4000000000000000000000000000000000000000000000000000000000000000a0000000000000000000000000000000000000000000000000000000000000000000000000000000000000000000000000000000100000000000000000000000000000000000000000000000000000000000000000000000000000000000000e00000000000000000000000000000000000000000000000000000000000000000000000000000000000000000000000000000000000000000000000000000000000000000000000000000000000000000000000000000000000000464dd46508f0000000000000000000000000000000000000000000000000000000000000040000000000000000000000000000000000000000000000000000000006873f1680000000000000000000000000000000000000000000000000000000000000400000000000000000000000000000000000000000000000000000000000000004000000000000000000000000000000000000000000000000000000000000000800000000000000000000000000000000000000000000000000000000000000004020d14140000000000000000000000000000000000000000000000000000000000000000000000000000000000000000000000000000000000000000000000040000000000000000000000000000000000000000000000000000000000000080000000000000000000000000000000000000000000000000000000000000024000000000000000000000000000000000000000000000000000000000000002a0000000000000000000000000000000000000000000000000000000000000030000000000000000000000000000000000000000000000000000000000000001a00000000000000000000000001c7d4b196cb0c7b01d743fbc6116a902379c723800000000000000000000000065675dcb0558030eae5fc3e42a41df576cc437ef00000000000000000000000000000000000000000000000000000000000001f4000000000000000000000000000000000000000000000000000000000000000a0000000000000000000000000000000000000000000000000000000000000000ffffffffffffffffffffffffffffffffffffffffffffffffffffffffffff3cb0000000000000000000000000000000000000000000000000000000000000c3500000000000000000000000000000000000000000000000000000000040ef7fe3000000000000000000000000000000000000000000000000000000003b9aca01000000000000000000000000000000000000000000000000000000003b9aca01000000000000000000000000911d82b108804a18022d0a2621b2fc608def6fca0000000000000000000000000000000000000000000000000000000000000180000000000000000000000000000000000000000000000000000000000000000000000000000000000000000000000000000000000000000000000000000000400000000000000000000000001c7d4b196cb0c7b01d743fbc6116a902379c723800000000000000000000000065675dcb0558030eae5fc3e42a41df576cc437ef00000000000000000000000000000000000000000000000000000000000000400000000000000000000000001c7d4b196cb0c7b01d743fbc6116a902379c7238000000000000000000000000911d82b108804a18022d0a2621b2fc608def6fca000000000000000000000000000000000000000000000000000000000000004000000000000000000000000065675dcb0558030eae5fc3e42a41df576cc437ef000000000000000000000000911d82b108804a18022d0a2621b2fc608def6fca00000000000000000000000000000000000000000000000000000000",
        "nonce": "0x10e",
        "chainId": "0xaa36a7"
      },
      "additionalContracts": [],
      "isFixedGasLimit": false
    }
  ],
  "receipts": [
    {
      "status": "0x1",
      "cumulativeGasUsed": "0xb13022",
      "logs": [
        {
          "address": "0x1c7d4b196cb0c7b01d743fbc6116a902379c7238",
          "topics": [
            "0x8c5be1e5ebec7d5bd14f71427d1e84f3dd0314c0f7b2291e5b200ac8c7c3b925",
            "0x000000000000000000000000911d82b108804a18022d0a2621b2fc608def6fca",
            "0x000000000000000000000000000000000022d473030f116ddee9f6b43ac78ba3"
          ],
          "data": "0xffffffffffffffffffffffffffffffffffffffffffffffffffffffffffffffff",
          "blockHash": "0xdab4c6f59eba558f647644922f67bd83d4a67d74ec1839199aaff10ec6c5681d",
          "blockNumber": "0x859cd7",
          "transactionHash": "0x6f2c9b7df8cb586093e6b36f1177135addf9825039b5d66fd8ddd166323027bd",
          "transactionIndex": "0x7f",
          "logIndex": "0x10b",
          "removed": false
        }
      ],
      "logsBloom": "0x00000000000000000000000000000000000000000000000000000000000200000000000000000000000000000000000000000000800000000000000000200000000000000000000000004000000000000000000000000800000000000000000000002000000000000000000000000000000000000000000000000000000000000000000000100000000000000000000000000000000000000000000000000000020000000000000000000000000000000000000000000000000000000000000000040000000000000000000000000000000000000000000000000000000000000010000000000000000010000000002000000000000000000000000000000000",
      "type": "0x2",
      "transactionHash": "0x6f2c9b7df8cb586093e6b36f1177135addf9825039b5d66fd8ddd166323027bd",
      "transactionIndex": "0x7f",
      "blockHash": "0xdab4c6f59eba558f647644922f67bd83d4a67d74ec1839199aaff10ec6c5681d",
      "blockNumber": "0x859cd7",
      "gasUsed": "0x96e1",
      "effectiveGasPrice": "0x1469fd",
      "from": "0x911d82b108804a18022d0a2621b2fc608def6fca",
      "to": "0x1c7d4b196cb0c7b01d743fbc6116a902379c7238",
      "contractAddress": null
    },
    {
      "status": "0x1",
      "cumulativeGasUsed": "0xb1a820",
      "logs": [
        {
          "address": "0x000000000022d473030f116ddee9f6b43ac78ba3",
          "topics": [
            "0xda9fa7c1b00402c17d0161b249b1ab8bbec047c5a52207b9c112deffd817036b",
            "0x000000000000000000000000911d82b108804a18022d0a2621b2fc608def6fca",
            "0x0000000000000000000000001c7d4b196cb0c7b01d743fbc6116a902379c7238",
            "0x000000000000000000000000429ba70129df741b2ca2a85bc3a2a3328e5c09b4"
          ],
          "data": "0x000000000000000000000000ffffffffffffffffffffffffffffffffffffffff0000000000000000000000000000000000000000000000000000ffffffffffff",
          "blockHash": "0xdab4c6f59eba558f647644922f67bd83d4a67d74ec1839199aaff10ec6c5681d",
          "blockNumber": "0x859cd7",
          "transactionHash": "0xcde0f07e045a332ddeb761e52c8f70e63fcab275f3b501d23e5f7b2fb0c679ea",
          "transactionIndex": "0x80",
          "logIndex": "0x10c",
          "removed": false
        }
      ],
      "logsBloom": "0x00010000000000000000000000000000000000000000000000000000000000000000000000000040080000000000000000000000000004000000000000080000100000000000000000000000000000000000000000000000000000000000000000002000000000000000000000000000000000000000000000000800000000000020000000000000000000000000000000000000000000000000000000000000000000000000000000000000000000000000008000000000000000080000000000040000000000000000000000000000000000000000000040000000000000000000000000000000000000000000002000000000000000000000000000000400",
      "type": "0x2",
      "transactionHash": "0xcde0f07e045a332ddeb761e52c8f70e63fcab275f3b501d23e5f7b2fb0c679ea",
      "transactionIndex": "0x80",
      "blockHash": "0xdab4c6f59eba558f647644922f67bd83d4a67d74ec1839199aaff10ec6c5681d",
      "blockNumber": "0x859cd7",
      "gasUsed": "0x77fe",
      "effectiveGasPrice": "0x1469fd",
      "from": "0x911d82b108804a18022d0a2621b2fc608def6fca",
      "to": "0x000000000022d473030f116ddee9f6b43ac78ba3",
      "contractAddress": null
    },
    {
      "status": "0x1",
      "cumulativeGasUsed": "0xb26083",
      "logs": [
        {
          "address": "0x65675dcb0558030eae5fc3e42a41df576cc437ef",
          "topics": [
            "0x8c5be1e5ebec7d5bd14f71427d1e84f3dd0314c0f7b2291e5b200ac8c7c3b925",
            "0x000000000000000000000000911d82b108804a18022d0a2621b2fc608def6fca",
            "0x000000000000000000000000000000000022d473030f116ddee9f6b43ac78ba3"
          ],
          "data": "0xffffffffffffffffffffffffffffffffffffffffffffffffffffffffffffffff",
          "blockHash": "0xdab4c6f59eba558f647644922f67bd83d4a67d74ec1839199aaff10ec6c5681d",
          "blockNumber": "0x859cd7",
          "transactionHash": "0xfcff8e1f7afee20d74e2ed7c2f0d91eaec7bb5bb178f1c71ac3aaa4cf586a311",
          "transactionIndex": "0x81",
          "logIndex": "0x10d",
          "removed": false
        }
      ],
      "logsBloom": "0x00000000000000000000000000000000000000000000000000000000000000000000000000000000000000000000000000000000800000000000000000200000000000000000000000004000000000000000000000000800000000000000000000002000000000000000000000000000000000000000000000000000000000000000000000000000000000000000000200000000000000000000000000000000020000000000000000040000000000000000000000000000000000000000000000040000000000000000000000000000000000000000000000000000000000000010000000000000000000000000002000000000000020000000000000000000",
      "type": "0x2",
      "transactionHash": "0xfcff8e1f7afee20d74e2ed7c2f0d91eaec7bb5bb178f1c71ac3aaa4cf586a311",
      "transactionIndex": "0x81",
      "blockHash": "0xdab4c6f59eba558f647644922f67bd83d4a67d74ec1839199aaff10ec6c5681d",
      "blockNumber": "0x859cd7",
      "gasUsed": "0xb863",
      "effectiveGasPrice": "0x1469fd",
      "from": "0x911d82b108804a18022d0a2621b2fc608def6fca",
      "to": "0x65675dcb0558030eae5fc3e42a41df576cc437ef",
      "contractAddress": null
    },
    {
      "status": "0x1",
      "cumulativeGasUsed": "0xb31b4d",
      "logs": [
        {
          "address": "0x000000000022d473030f116ddee9f6b43ac78ba3",
          "topics": [
            "0xda9fa7c1b00402c17d0161b249b1ab8bbec047c5a52207b9c112deffd817036b",
            "0x000000000000000000000000911d82b108804a18022d0a2621b2fc608def6fca",
            "0x00000000000000000000000065675dcb0558030eae5fc3e42a41df576cc437ef",
            "0x000000000000000000000000429ba70129df741b2ca2a85bc3a2a3328e5c09b4"
          ],
          "data": "0x000000000000000000000000ffffffffffffffffffffffffffffffffffffffff0000000000000000000000000000000000000000000000000000ffffffffffff",
          "blockHash": "0xdab4c6f59eba558f647644922f67bd83d4a67d74ec1839199aaff10ec6c5681d",
          "blockNumber": "0x859cd7",
          "transactionHash": "0xcf468e762349266acca261036ebc82741549edfecb9cb3e9b26cd54ef33f1921",
          "transactionIndex": "0x82",
          "logIndex": "0x10e",
          "removed": false
        }
      ],
      "logsBloom": "0x00010000040000000000000000000000000000000000000000000000000000000000000000000040080000000000000000000000000000000000000000080000000000000000000000000002000000000000000000000000000000000000000000002000000000000000000000000000000000000000000000000800000000000020000000000000000000000000000000000000000000000000000000000000000000000000000000000000000000000000000000000000000000080000000000040000000000000000000000000000000000000000000240000000000000000000000000000000000000000000002000000000000000000000000000000400",
      "type": "0x2",
      "transactionHash": "0xcf468e762349266acca261036ebc82741549edfecb9cb3e9b26cd54ef33f1921",
      "transactionIndex": "0x82",
      "blockHash": "0xdab4c6f59eba558f647644922f67bd83d4a67d74ec1839199aaff10ec6c5681d",
      "blockNumber": "0x859cd7",
      "gasUsed": "0xbaca",
      "effectiveGasPrice": "0x1469fd",
      "from": "0x911d82b108804a18022d0a2621b2fc608def6fca",
      "to": "0x000000000022d473030f116ddee9f6b43ac78ba3",
      "contractAddress": null
    },
    {
      "status": "0x1",
      "cumulativeGasUsed": "0xba00b6",
      "logs": [
        {
          "address": "0xe03a1074c86cfedd5c142c4f04f1a1536e203543",
          "topics": [
            "0xdd466e674ea557f56295e2d0218a125ea4b4f0f6f3307b95f85e6110838d6438",
            "0x3f7c20dc9a208115dd9c142920c2820cde1d272fc22bb4b3f939e6c9c1479e8c",
            "0x0000000000000000000000001c7d4b196cb0c7b01d743fbc6116a902379c7238",
            "0x00000000000000000000000065675dcb0558030eae5fc3e42a41df576cc437ef"
          ],
          "data": "0x00000000000000000000000000000000000000000000000000000000000001f4000000000000000000000000000000000000000000000000000000000000000a000000000000000000000000000000000000000000000000000000000000000000000000000000000000000000000000000000010000000000000000000000000000000000000000000000000000000000000000000000000000000000000000",
          "blockHash": "0xdab4c6f59eba558f647644922f67bd83d4a67d74ec1839199aaff10ec6c5681d",
          "blockNumber": "0x859cd7",
          "transactionHash": "0xd0dfe525465efd7073ac8b1ec482b9f909879c11b16188e222be7d5f177e0fae",
          "transactionIndex": "0x83",
          "logIndex": "0x10f",
          "removed": false
        },
        {
          "address": "0x429ba70129df741b2ca2a85bc3a2a3328e5c09b4",
          "topics": [
            "0xddf252ad1be2c89b69c2b068fc378daa952ba7f163c4a11628f55a4df523b3ef",
            "0x0000000000000000000000000000000000000000000000000000000000000000",
            "0x000000000000000000000000911d82b108804a18022d0a2621b2fc608def6fca",
            "0x0000000000000000000000000000000000000000000000000000000000003a49"
          ],
          "data": "0x",
          "blockHash": "0xdab4c6f59eba558f647644922f67bd83d4a67d74ec1839199aaff10ec6c5681d",
          "blockNumber": "0x859cd7",
          "transactionHash": "0xd0dfe525465efd7073ac8b1ec482b9f909879c11b16188e222be7d5f177e0fae",
          "transactionIndex": "0x83",
          "logIndex": "0x110",
          "removed": false
        },
        {
          "address": "0xe03a1074c86cfedd5c142c4f04f1a1536e203543",
          "topics": [
            "0xf208f4912782fd25c7f114ca3723a2d5dd6f3bcc3ac8db5af63baa85f711d5ec",
            "0x3f7c20dc9a208115dd9c142920c2820cde1d272fc22bb4b3f939e6c9c1479e8c",
            "0x000000000000000000000000429ba70129df741b2ca2a85bc3a2a3328e5c09b4"
          ],
          "data": "0xffffffffffffffffffffffffffffffffffffffffffffffffffffffffffff3cb0000000000000000000000000000000000000000000000000000000000000c3500000000000000000000000000000000000000000000000000000000040ef7fe30000000000000000000000000000000000000000000000000000000000003a49",
          "blockHash": "0xdab4c6f59eba558f647644922f67bd83d4a67d74ec1839199aaff10ec6c5681d",
          "blockNumber": "0x859cd7",
          "transactionHash": "0xd0dfe525465efd7073ac8b1ec482b9f909879c11b16188e222be7d5f177e0fae",
          "transactionIndex": "0x83",
          "logIndex": "0x111",
          "removed": false
        },
        {
          "address": "0x1c7d4b196cb0c7b01d743fbc6116a902379c7238",
          "topics": [
            "0xddf252ad1be2c89b69c2b068fc378daa952ba7f163c4a11628f55a4df523b3ef",
            "0x000000000000000000000000911d82b108804a18022d0a2621b2fc608def6fca",
            "0x000000000000000000000000e03a1074c86cfedd5c142c4f04f1a1536e203543"
          ],
          "data": "0x000000000000000000000000000000000000000000000000000000003b9aca00",
          "blockHash": "0xdab4c6f59eba558f647644922f67bd83d4a67d74ec1839199aaff10ec6c5681d",
          "blockNumber": "0x859cd7",
          "transactionHash": "0xd0dfe525465efd7073ac8b1ec482b9f909879c11b16188e222be7d5f177e0fae",
          "transactionIndex": "0x83",
          "logIndex": "0x112",
          "removed": false
        },
        {
          "address": "0x65675dcb0558030eae5fc3e42a41df576cc437ef",
          "topics": [
            "0xddf252ad1be2c89b69c2b068fc378daa952ba7f163c4a11628f55a4df523b3ef",
            "0x000000000000000000000000911d82b108804a18022d0a2621b2fc608def6fca",
            "0x000000000000000000000000e03a1074c86cfedd5c142c4f04f1a1536e203543"
          ],
          "data": "0x000000000000000000000000000000000000000000000000000000003b9aca00",
          "blockHash": "0xdab4c6f59eba558f647644922f67bd83d4a67d74ec1839199aaff10ec6c5681d",
          "blockNumber": "0x859cd7",
          "transactionHash": "0xd0dfe525465efd7073ac8b1ec482b9f909879c11b16188e222be7d5f177e0fae",
          "transactionIndex": "0x83",
          "logIndex": "0x113",
          "removed": false
        }
      ],
      "logsBloom": "0x0000000004000000000000100000000000000000000000000000000008020000000000000000005008000000000000000000010000000400000000000000000010000000000000000000000a000000000000000000000000008000000000000000002000020020000000000080000800000000000000100000000810000000000000000001100208000010000000000201000001000000000000000000200000000004000000000000040000000800000000008000400000000000000000000000040002000000000000000000000000000000000000000200001000000020001000000000000000000010000000002004000000000020000000000000000000",
      "type": "0x2",
      "transactionHash": "0xd0dfe525465efd7073ac8b1ec482b9f909879c11b16188e222be7d5f177e0fae",
      "transactionIndex": "0x83",
      "blockHash": "0xdab4c6f59eba558f647644922f67bd83d4a67d74ec1839199aaff10ec6c5681d",
      "blockNumber": "0x859cd7",
      "gasUsed": "0x6e569",
      "effectiveGasPrice": "0x1469fd",
      "from": "0x911d82b108804a18022d0a2621b2fc608def6fca",
      "to": "0x429ba70129df741b2ca2a85bc3a2a3328e5c09b4",
      "contractAddress": null
    }
  ],
  "libraries": [],
  "pending": [],
  "returns": {},
  "timestamp": 1752425341,
  "chain": 11155111,
  "commit": "c51abc8"
}