{
  "transactions": [
    {
      "hash": "0xd4f7c65d681f22b8ec6efa517f15f079e764f98da0f63137f88c57cfde02d002",
      "transactionType": "CALL",
      "contractName": null,
      "contractAddress": "0x65675dcb0558030eae5fc3e42a41df576cc437ef",
      "function": "approve(address,uint256)",
      "arguments": [
        "0x000000000022D473030F116dDEE9F6B43aC78BA3",
        "115792089237316195423570985008687907853269984665640564039457584007913129639935"
      ],
      "transaction": {
        "from": "0x911d82b108804a18022d0a2621b2fc608def6fca",
        "to": "0x65675dcb0558030eae5fc3e42a41df576cc437ef",
        "gas": "0x934f",
        "value": "0x0",
        "input": "0x095ea7b3000000000000000000000000000000000022d473030f116ddee9f6b43ac78ba3ffffffffffffffffffffffffffffffffffffffffffffffffffffffffffffffff",
        "nonce": "0x158",
        "chainId": "0xaa36a7"
      },
      "additionalContracts": [],
      "isFixedGasLimit": false
    },
    {
      "hash": "0xbae7bce76baefaa55baeda36c181320ceb46c334e4640a1f28e5e8760a75b047",
      "transactionType": "CALL",
      "contractName": null,
      "contractAddress": "0x000000000022d473030f116ddee9f6b43ac78ba3",
      "function": "approve(address,address,uint160,uint48)",
      "arguments": [
        "0x65675DCB0558030eaE5fc3E42a41df576cc437Ef",
        "0x429ba70129df741B2Ca2a85BC3A2a3328e5c09b4",
        "1461501637330902918203684832716283019655932542975",
        "281474976710655"
      ],
      "transaction": {
        "from": "0x911d82b108804a18022d0a2621b2fc608def6fca",
        "to": "0x000000000022d473030f116ddee9f6b43ac78ba3",
        "gas": "0x96a0",
        "value": "0x0",
        "input": "0x87517c4500000000000000000000000065675dcb0558030eae5fc3e42a41df576cc437ef000000000000000000000000429ba70129df741b2ca2a85bc3a2a3328e5c09b4000000000000000000000000ffffffffffffffffffffffffffffffffffffffff0000000000000000000000000000000000000000000000000000ffffffffffff",
        "nonce": "0x159",
        "chainId": "0xaa36a7"
      },
      "additionalContracts": [],
      "isFixedGasLimit": false
    },
    {
      "hash": "0xb5404f9d2ee0d6fe6f1329eda6daf0091a64fee7393824d7839e59e3b7c03caf",
      "transactionType": "CALL",
      "contractName": null,
      "contractAddress": "0x429ba70129df741b2ca2a85bc3a2a3328e5c09b4",
      "function": "multicall(bytes[])",
      "arguments": [
        "[0xf7020405000000000000000000000000000000000000000000000000000000000000000000000000000000000000000065675dcb0558030eae5fc3e42a41df576cc437ef00000000000000000000000000000000000000000000000000000000000001f400000000000000000000000000000000000000000000000000000000000000640000000000000000000000000000000000000000000000000000000000000000000000000000000000000000000000000000000000018ccde2a96aa2938874c100000000000000000000000000000000000000000000000000000000000000e00000000000000000000000000000000000000000000000000000000000000000, 0xdd46508f000000000000000000000000000000000000000000000000000000000000004000000000000000000000000000000000000000000000000000000000688269d80000000000000000000000000000000000000000000000000000000000000400000000000000000000000000000000000000000000000000000000000000004000000000000000000000000000000000000000000000000000000000000000800000000000000000000000000000000000000000000000000000000000000004020d14140000000000000000000000000000000000000000000000000000000000000000000000000000000000000000000000000000000000000000000000040000000000000000000000000000000000000000000000000000000000000080000000000000000000000000000000000000000000000000000000000000024000000000000000000000000000000000000000000000000000000000000002a0000000000000000000000000000000000000000000000000000000000000030000000000000000000000000000000000000000000000000000000000000001a0000000000000000000000000000000000000000000000000000000000000000000000000000000000000000065675dcb0558030eae5fc3e42a41df576cc437ef00000000000000000000000000000000000000000000000000000000000001f400000000000000000000000000000000000000000000000000000000000000640000000000000000000000000000000000000000000000000000000000000000fffffffffffffffffffffffffffffffffffffffffffffffffffffffffff51ed800000000000000000000000000000000000000000000000000000000000460b400000000000000000000000000000000000000000000000000001582c3d9c6800000000000000000000000000000000000000000000000000de0b6b3a764000100000000000000000000000000000000000000000000000000000000d09dc301000000000000000000000000911d82b108804a18022d0a2621b2fc608def6fca000000000000000000000000000000000000000000000000000000000000018000000000000000000000000000000000000000000000000000000000000000000000000000000000000000000000000000000000000000000000000000000040000000000000000000000000000000000000000000000000000000000000000000000000000000000000000065675dcb0558030eae5fc3e42a41df576cc437ef00000000000000000000000000000000000000000000000000000000000000400000000000000000000000000000000000000000000000000000000000000000000000000000000000000000911d82b108804a18022d0a2621b2fc608def6fca000000000000000000000000000000000000000000000000000000000000004000000000000000000000000065675dcb0558030eae5fc3e42a41df576cc437ef000000000000000000000000911d82b108804a18022d0a2621b2fc608def6fca]"
      ],
      "transaction": {
        "from": "0x911d82b108804a18022d0a2621b2fc608def6fca",
        "to": "0x429ba70129df741b2ca2a85bc3a2a3328e5c09b4",
        "gas": "0x88de0",
        "value": "0xde0b6b3a7640001",
        "input": "0xac9650d800000000000000000000000000000000000000000000000000000000000000200000000000000000000000000000000000000000000000000000000000000002000000000000000000000000000000000000000000000000000000000000004000000000000000000000000000000000000000000000000000000000000001800000000000000000000000000000000000000000000000000000000000000104f7020405000000000000000000000000000000000000000000000000000000000000000000000000000000000000000065675dcb0558030eae5fc3e42a41df576cc437ef00000000000000000000000000000000000000000000000000000000000001f400000000000000000000000000000000000000000000000000000000000000640000000000000000000000000000000000000000000000000000000000000000000000000000000000000000000000000000000000018ccde2a96aa2938874c100000000000000000000000000000000000000000000000000000000000000e00000000000000000000000000000000000000000000000000000000000000000000000000000000000000000000000000000000000000000000000000000000000000000000000000000000000000000000000000000000000000464dd46508f000000000000000000000000000000000000000000000000000000000000004000000000000000000000000000000000000000000000000000000000688269d80000000000000000000000000000000000000000000000000000000000000400000000000000000000000000000000000000000000000000000000000000004000000000000000000000000000000000000000000000000000000000000000800000000000000000000000000000000000000000000000000000000000000004020d14140000000000000000000000000000000000000000000000000000000000000000000000000000000000000000000000000000000000000000000000040000000000000000000000000000000000000000000000000000000000000080000000000000000000000000000000000000000000000000000000000000024000000000000000000000000000000000000000000000000000000000000002a0000000000000000000000000000000000000000000000000000000000000030000000000000000000000000000000000000000000000000000000000000001a0000000000000000000000000000000000000000000000000000000000000000000000000000000000000000065675dcb0558030eae5fc3e42a41df576cc437ef00000000000000000000000000000000000000000000000000000000000001f400000000000000000000000000000000000000000000000000000000000000640000000000000000000000000000000000000000000000000000000000000000fffffffffffffffffffffffffffffffffffffffffffffffffffffffffff51ed800000000000000000000000000000000000000000000000000000000000460b400000000000000000000000000000000000000000000000000001582c3d9c6800000000000000000000000000000000000000000000000000de0b6b3a764000100000000000000000000000000000000000000000000000000000000d09dc301000000000000000000000000911d82b108804a18022d0a2621b2fc608def6fca000000000000000000000000000000000000000000000000000000000000018000000000000000000000000000000000000000000000000000000000000000000000000000000000000000000000000000000000000000000000000000000040000000000000000000000000000000000000000000000000000000000000000000000000000000000000000065675dcb0558030eae5fc3e42a41df576cc437ef00000000000000000000000000000000000000000000000000000000000000400000000000000000000000000000000000000000000000000000000000000000000000000000000000000000911d82b108804a18022d0a2621b2fc608def6fca000000000000000000000000000000000000000000000000000000000000004000000000000000000000000065675dcb0558030eae5fc3e42a41df576cc437ef000000000000000000000000911d82b108804a18022d0a2621b2fc608def6fca00000000000000000000000000000000000000000000000000000000",
        "nonce": "0x15a",
        "chainId": "0xaa36a7"
      },
      "additionalContracts": [],
      "isFixedGasLimit": false
    }
  ],
  "receipts": [
    {
      "status": "0x1",
      "cumulativeGasUsed": "0x20a3790",
      "logs": [
        {
          "address": "0x65675dcb0558030eae5fc3e42a41df576cc437ef",
          "topics": [
            "0x8c5be1e5ebec7d5bd14f71427d1e84f3dd0314c0f7b2291e5b200ac8c7c3b925",
            "0x000000000000000000000000911d82b108804a18022d0a2621b2fc608def6fca",
            "0x000000000000000000000000000000000022d473030f116ddee9f6b43ac78ba3"
          ],
          "data": "0xffffffffffffffffffffffffffffffffffffffffffffffffffffffffffffffff",
          "blockHash": "0x7bbf551556bfd197ad9e441cea16f2c9a44186a2257f8dd5361679bdb159f9de",
          "blockNumber": "0x86c8e4",
          "transactionHash": "0xd4f7c65d681f22b8ec6efa517f15f079e764f98da0f63137f88c57cfde02d002",
          "transactionIndex": "0xed",
          "logIndex": "0x17b",
          "removed": false
        }
      ],
      "logsBloom": "0x00000000000000000000000000000000000000000000000000000000000000000000000000000000000000000000000000000000800000000000000000200000000000000000000000004000000000000000000000000800000000000000000000002000000000000000000000000000000000000000000000000000000000000000000000000000000000000000000200000000000000000000000000000000020000000000000000040000000000000000000000000000000000000000000000040000000000000000000000000000000000000000000000000000000000000010000000000000000000000000002000000000000020000000000000000000",
      "type": "0x2",
      "transactionHash": "0xd4f7c65d681f22b8ec6efa517f15f079e764f98da0f63137f88c57cfde02d002",
      "transactionIndex": "0xed",
      "blockHash": "0x7bbf551556bfd197ad9e441cea16f2c9a44186a2257f8dd5361679bdb159f9de",
      "blockNumber": "0x86c8e4",
      "gasUsed": "0x6aa7",
      "effectiveGasPrice": "0x10b409",
      "from": "0x911d82b108804a18022d0a2621b2fc608def6fca",
      "to": "0x65675dcb0558030eae5fc3e42a41df576cc437ef",
      "contractAddress": null
    },
    {
      "status": "0x1",
      "cumulativeGasUsed": "0x20aa49e",
      "logs": [
        {
          "address": "0x000000000022d473030f116ddee9f6b43ac78ba3",
          "topics": [
            "0xda9fa7c1b00402c17d0161b249b1ab8bbec047c5a52207b9c112deffd817036b",
            "0x000000000000000000000000911d82b108804a18022d0a2621b2fc608def6fca",
            "0x00000000000000000000000065675dcb0558030eae5fc3e42a41df576cc437ef",
            "0x000000000000000000000000429ba70129df741b2ca2a85bc3a2a3328e5c09b4"
          ],
          "data": "0x000000000000000000000000ffffffffffffffffffffffffffffffffffffffff0000000000000000000000000000000000000000000000000000ffffffffffff",
          "blockHash": "0x7bbf551556bfd197ad9e441cea16f2c9a44186a2257f8dd5361679bdb159f9de",
          "blockNumber": "0x86c8e4",
          "transactionHash": "0xbae7bce76baefaa55baeda36c181320ceb46c334e4640a1f28e5e8760a75b047",
          "transactionIndex": "0xee",
          "logIndex": "0x17c",
          "removed": false
        }
      ],
      "logsBloom": "0x00010000040000000000000000000000000000000000000000000000000000000000000000000040080000000000000000000000000000000000000000080000000000000000000000000002000000000000000000000000000000000000000000002000000000000000000000000000000000000000000000000800000000000020000000000000000000000000000000000000000000000000000000000000000000000000000000000000000000000000000000000000000000080000000000040000000000000000000000000000000000000000000240000000000000000000000000000000000000000000002000000000000000000000000000000400",
      "type": "0x2",
      "transactionHash": "0xbae7bce76baefaa55baeda36c181320ceb46c334e4640a1f28e5e8760a75b047",
      "transactionIndex": "0xee",
      "blockHash": "0x7bbf551556bfd197ad9e441cea16f2c9a44186a2257f8dd5361679bdb159f9de",
      "blockNumber": "0x86c8e4",
      "gasUsed": "0x6d0e",
      "effectiveGasPrice": "0x10b409",
      "from": "0x911d82b108804a18022d0a2621b2fc608def6fca",
      "to": "0x000000000022d473030f116ddee9f6b43ac78ba3",
      "contractAddress": null
    },
    {
      "status": "0x1",
      "cumulativeGasUsed": "0xc0ef5e",
      "logs": [
        {
          "address": "0xe03a1074c86cfedd5c142c4f04f1a1536e203543",
          "topics": [
            "0xdd466e674ea557f56295e2d0218a125ea4b4f0f6f3307b95f85e6110838d6438",
            "0xca9c3f6a286f9d8339e4df98892e6b2972c88b84dd80a12ac7d2950f58ef225e",
            "0x0000000000000000000000000000000000000000000000000000000000000000",
            "0x00000000000000000000000065675dcb0558030eae5fc3e42a41df576cc437ef"
          ],
          "data": "0x00000000000000000000000000000000000000000000000000000000000001f400000000000000000000000000000000000000000000000000000000000000640000000000000000000000000000000000000000000000000000000000000000000000000000000000000000000000000000000000018ccde2a96aa2938874c1fffffffffffffffffffffffffffffffffffffffffffffffffffffffffffcbfc3",
          "blockHash": "0xb0ba97c3f81e4f6189a80fdd3e81396825c136f59ef136f404bb157aef648bdc",
          "blockNumber": "0x86c8e6",
          "transactionHash": "0xb5404f9d2ee0d6fe6f1329eda6daf0091a64fee7393824d7839e59e3b7c03caf",
          "transactionIndex": "0x8e",
          "logIndex": "0xf3",
          "removed": false
        },
        {
          "address": "0x429ba70129df741b2ca2a85bc3a2a3328e5c09b4",
          "topics": [
            "0xddf252ad1be2c89b69c2b068fc378daa952ba7f163c4a11628f55a4df523b3ef",
            "0x0000000000000000000000000000000000000000000000000000000000000000",
            "0x000000000000000000000000911d82b108804a18022d0a2621b2fc608def6fca",
            "0x0000000000000000000000000000000000000000000000000000000000003b62"
          ],
          "data": "0x",
          "blockHash": "0xb0ba97c3f81e4f6189a80fdd3e81396825c136f59ef136f404bb157aef648bdc",
          "blockNumber": "0x86c8e6",
          "transactionHash": "0xb5404f9d2ee0d6fe6f1329eda6daf0091a64fee7393824d7839e59e3b7c03caf",
          "transactionIndex": "0x8e",
          "logIndex": "0xf4",
          "removed": false
        },
        {
          "address": "0xe03a1074c86cfedd5c142c4f04f1a1536e203543",
          "topics": [
            "0xf208f4912782fd25c7f114ca3723a2d5dd6f3bcc3ac8db5af63baa85f711d5ec",
            "0xca9c3f6a286f9d8339e4df98892e6b2972c88b84dd80a12ac7d2950f58ef225e",
            "0x000000000000000000000000429ba70129df741b2ca2a85bc3a2a3328e5c09b4"
          ],
          "data": "0xfffffffffffffffffffffffffffffffffffffffffffffffffffffffffff51ed800000000000000000000000000000000000000000000000000000000000460b400000000000000000000000000000000000000000000000000001582c3d9c6800000000000000000000000000000000000000000000000000000000000003b62",
          "blockHash": "0xb0ba97c3f81e4f6189a80fdd3e81396825c136f59ef136f404bb157aef648bdc",
          "blockNumber": "0x86c8e6",
          "transactionHash": "0xb5404f9d2ee0d6fe6f1329eda6daf0091a64fee7393824d7839e59e3b7c03caf",
          "transactionIndex": "0x8e",
          "logIndex": "0xf5",
          "removed": false
        },
        {
          "address": "0x65675dcb0558030eae5fc3e42a41df576cc437ef",
          "topics": [
            "0xddf252ad1be2c89b69c2b068fc378daa952ba7f163c4a11628f55a4df523b3ef",
            "0x000000000000000000000000911d82b108804a18022d0a2621b2fc608def6fca",
            "0x000000000000000000000000e03a1074c86cfedd5c142c4f04f1a1536e203543"
          ],
          "data": "0x00000000000000000000000000000000000000000000000000000000215793b8",
          "blockHash": "0xb0ba97c3f81e4f6189a80fdd3e81396825c136f59ef136f404bb157aef648bdc",
          "blockNumber": "0x86c8e6",
          "transactionHash": "0xb5404f9d2ee0d6fe6f1329eda6daf0091a64fee7393824d7839e59e3b7c03caf",
          "transactionIndex": "0x8e",
          "logIndex": "0xf6",
          "removed": false
        }
      ],
      "logsBloom": "0x0000000004000000000000100000000000000000000000000000000008000000000000000000004008000000000000000000010000000000000000000000000000000000000000000000000a000000000000000000000000000000000000000000002000020000000000000080020800000000000000100000000810000000000004000001000008000010000000000200000001000000000000100000200000000004000000000000040000000000000000000000400000000000000000000000040002000000000100000000000000000000000000000200801000000020001000000000000000000000000000002004000000000020000000004000000000",
      "type": "0x2",
      "transactionHash": "0xb5404f9d2ee0d6fe6f1329eda6daf0091a64fee7393824d7839e59e3b7c03caf",
      "transactionIndex": "0x8e",
      "blockHash": "0xb0ba97c3f81e4f6189a80fdd3e81396825c136f59ef136f404bb157aef648bdc",
      "blockNumber": "0x86c8e6",
      "gasUsed": "0x5d95a",
      "effectiveGasPrice": "0x10b403",
      "from": "0x911d82b108804a18022d0a2621b2fc608def6fca",
      "to": "0x429ba70129df741b2ca2a85bc3a2a3328e5c09b4",
      "contractAddress": null
    }
  ],
  "libraries": [],
  "pending": [],
  "returns": {},
  "timestamp": 1753373701,
  "chain": 11155111,
  "commit": "60465f3"
}