{
  "transactions": [
    {
      "hash": "0xe50ef8c61b2b3079a56ba29f8602dc71ed61e7263ae0fd38a3f57928f3f8e439",
      "transactionType": "CALL",
      "contractName": null,
      "contractAddress": "0x036cbd53842c5426634e7929541ec2318f3dcf7e",
      "function": "approve(address,uint256)",
      "arguments": [
        "0x000000000022D473030F116dDEE9F6B43aC78BA3",
        "115792089237316195423570985008687907853269984665640564039457584007913129639935"
      ],
      "transaction": {
        "from": "0x911d82b108804a18022d0a2621b2fc608def6fca",
        "to": "0x036cbd53842c5426634e7929541ec2318f3dcf7e",
        "gas": "0xdca8",
        "value": "0x0",
        "input": "0x095ea7b3000000000000000000000000000000000022d473030f116ddee9f6b43ac78ba3ffffffffffffffffffffffffffffffffffffffffffffffffffffffffffffffff",
        "nonce": "0x73",
        "chainId": "0x14a34"
      },
      "additionalContracts": [],
      "isFixedGasLimit": false
    },
    {
      "hash": "0x054e1db99f1c13dcf86abe3eb015580ed4648917dc8c53626fb1713eca4208c9",
      "transactionType": "CALL",
      "contractName": null,
      "contractAddress": "0x000000000022d473030f116ddee9f6b43ac78ba3",
      "function": "approve(address,address,uint160,uint48)",
      "arguments": [
        "0x036CbD53842c5426634e7929541eC2318f3dCF7e",
        "0x4B2C77d209D3405F41a037Ec6c77F7F5b8e2ca80",
        "1461501637330902918203684832716283019655932542975",
        "281474976710655"
      ],
      "transaction": {
        "from": "0x911d82b108804a18022d0a2621b2fc608def6fca",
        "to": "0x000000000022d473030f116ddee9f6b43ac78ba3",
        "gas": "0x96a0",
        "value": "0x0",
        "input": "0x87517c45000000000000000000000000036cbd53842c5426634e7929541ec2318f3dcf7e0000000000000000000000004b2c77d209d3405f41a037ec6c77f7f5b8e2ca80000000000000000000000000ffffffffffffffffffffffffffffffffffffffff0000000000000000000000000000000000000000000000000000ffffffffffff",
        "nonce": "0x74",
        "chainId": "0x14a34"
      },
      "additionalContracts": [],
      "isFixedGasLimit": false
    },
    {
      "hash": "0xcc0343c53ecff96f8e30cd25668c6a3488e1f31befb6bc742bc24ae317725a4b",
      "transactionType": "CALL",
      "contractName": null,
      "contractAddress": "0x5f6d35d1add891416969194709ddd374b6d26253",
      "function": "approve(address,uint256)",
      "arguments": [
        "0x000000000022D473030F116dDEE9F6B43aC78BA3",
        "115792089237316195423570985008687907853269984665640564039457584007913129639935"
      ],
      "transaction": {
        "from": "0x911d82b108804a18022d0a2621b2fc608def6fca",
        "to": "0x5f6d35d1add891416969194709ddd374b6d26253",
        "gas": "0x934f",
        "value": "0x0",
        "input": "0x095ea7b3000000000000000000000000000000000022d473030f116ddee9f6b43ac78ba3ffffffffffffffffffffffffffffffffffffffffffffffffffffffffffffffff",
        "nonce": "0x75",
        "chainId": "0x14a34"
      },
      "additionalContracts": [],
      "isFixedGasLimit": false
    },
    {
      "hash": "0xa3e3ea142d996312f0f515b56ee9bf009f82dcf0f6462d6a45fa61da70352ce7",
      "transactionType": "CALL",
      "contractName": null,
      "contractAddress": "0x000000000022d473030f116ddee9f6b43ac78ba3",
      "function": "approve(address,address,uint160,uint48)",
      "arguments": [
        "0x5f6D35D1Add891416969194709ddd374B6D26253",
        "0x4B2C77d209D3405F41a037Ec6c77F7F5b8e2ca80",
        "1461501637330902918203684832716283019655932542975",
        "281474976710655"
      ],
      "transaction": {
        "from": "0x911d82b108804a18022d0a2621b2fc608def6fca",
        "to": "0x000000000022d473030f116ddee9f6b43ac78ba3",
        "gas": "0x96a0",
        "value": "0x0",
        "input": "0x87517c450000000000000000000000005f6d35d1add891416969194709ddd374b6d262530000000000000000000000004b2c77d209d3405f41a037ec6c77f7f5b8e2ca80000000000000000000000000ffffffffffffffffffffffffffffffffffffffff0000000000000000000000000000000000000000000000000000ffffffffffff",
        "nonce": "0x76",
        "chainId": "0x14a34"
      },
      "additionalContracts": [],
      "isFixedGasLimit": false
    },
    {
      "hash": "0x30eca7bfa2a08ca9e27ef850a83916b4f51f7249c2a5875508bd38cdbd039513",
      "transactionType": "CALL",
      "contractName": null,
      "contractAddress": "0x4b2c77d209d3405f41a037ec6c77f7f5b8e2ca80",
      "function": "modifyLiquidities(bytes,uint256)",
      "arguments": [
        "0x000000000000000000000000000000000000000000000000000000000000004000000000000000000000000000000000000000000000000000000000000000800000000000000000000000000000000000000000000000000000000000000004020d14140000000000000000000000000000000000000000000000000000000000000000000000000000000000000000000000000000000000000000000000040000000000000000000000000000000000000000000000000000000000000080000000000000000000000000000000000000000000000000000000000000024000000000000000000000000000000000000000000000000000000000000002a0000000000000000000000000000000000000000000000000000000000000030000000000000000000000000000000000000000000000000000000000000001a0000000000000000000000000036cbd53842c5426634e7929541ec2318f3dcf7e0000000000000000000000005f6d35d1add891416969194709ddd374b6d26253000000000000000000000000000000000000000000000000000000000000006400000000000000000000000000000000000000000000000000000000000000010000000000000000000000000000000000000000000000000000000000000000ffffffffffffffffffffffffffffffffffffffffffffffffffffffffffffff9c0000000000000000000000000000000000000000000000000000000000000064000000000000000000000000000000000000000000000000000000006b8fea5400000000000000000000000000000000000000000000000000000000008954410000000000000000000000000000000000000000000000000000000000895441000000000000000000000000911d82b108804a18022d0a2621b2fc608def6fca000000000000000000000000000000000000000000000000000000000000018000000000000000000000000000000000000000000000000000000000000000000000000000000000000000000000000000000000000000000000000000000040000000000000000000000000036cbd53842c5426634e7929541ec2318f3dcf7e0000000000000000000000005f6d35d1add891416969194709ddd374b6d262530000000000000000000000000000000000000000000000000000000000000040000000000000000000000000036cbd53842c5426634e7929541ec2318f3dcf7e000000000000000000000000911d82b108804a18022d0a2621b2fc608def6fca00000000000000000000000000000000000000000000000000000000000000400000000000000000000000005f6d35d1add891416969194709ddd374b6d26253000000000000000000000000911d82b108804a18022d0a2621b2fc608def6fca",
        "1752169944"
      ],
      "transaction": {
        "from": "0x911d82b108804a18022d0a2621b2fc608def6fca",
        "to": "0x4b2c77d209d3405f41a037ec6c77f7f5b8e2ca80",
        "gas": "0x716ef",
        "value": "0x0",
        "input": "0xdd46508f000000000000000000000000000000000000000000000000000000000000004000000000000000000000000000000000000000000000000000000000686ffdd80000000000000000000000000000000000000000000000000000000000000400000000000000000000000000000000000000000000000000000000000000004000000000000000000000000000000000000000000000000000000000000000800000000000000000000000000000000000000000000000000000000000000004020d14140000000000000000000000000000000000000000000000000000000000000000000000000000000000000000000000000000000000000000000000040000000000000000000000000000000000000000000000000000000000000080000000000000000000000000000000000000000000000000000000000000024000000000000000000000000000000000000000000000000000000000000002a0000000000000000000000000000000000000000000000000000000000000030000000000000000000000000000000000000000000000000000000000000001a0000000000000000000000000036cbd53842c5426634e7929541ec2318f3dcf7e0000000000000000000000005f6d35d1add891416969194709ddd374b6d26253000000000000000000000000000000000000000000000000000000000000006400000000000000000000000000000000000000000000000000000000000000010000000000000000000000000000000000000000000000000000000000000000ffffffffffffffffffffffffffffffffffffffffffffffffffffffffffffff9c0000000000000000000000000000000000000000000000000000000000000064000000000000000000000000000000000000000000000000000000006b8fea5400000000000000000000000000000000000000000000000000000000008954410000000000000000000000000000000000000000000000000000000000895441000000000000000000000000911d82b108804a18022d0a2621b2fc608def6fca000000000000000000000000000000000000000000000000000000000000018000000000000000000000000000000000000000000000000000000000000000000000000000000000000000000000000000000000000000000000000000000040000000000000000000000000036cbd53842c5426634e7929541ec2318f3dcf7e0000000000000000000000005f6d35d1add891416969194709ddd374b6d262530000000000000000000000000000000000000000000000000000000000000040000000000000000000000000036cbd53842c5426634e7929541ec2318f3dcf7e000000000000000000000000911d82b108804a18022d0a2621b2fc608def6fca00000000000000000000000000000000000000000000000000000000000000400000000000000000000000005f6d35d1add891416969194709ddd374b6d26253000000000000000000000000911d82b108804a18022d0a2621b2fc608def6fca",
        "nonce": "0x77",
        "chainId": "0x14a34"
      },
      "additionalContracts": [],
      "isFixedGasLimit": false
    }
  ],
  "receipts": [
    {
      "status": "0x1",
      "cumulativeGasUsed": "0x2f2358",
      "logs": [
        {
          "address": "0x036cbd53842c5426634e7929541ec2318f3dcf7e",
          "topics": [
            "0x8c5be1e5ebec7d5bd14f71427d1e84f3dd0314c0f7b2291e5b200ac8c7c3b925",
            "0x000000000000000000000000911d82b108804a18022d0a2621b2fc608def6fca",
            "0x000000000000000000000000000000000022d473030f116ddee9f6b43ac78ba3"
          ],
          "data": "0xffffffffffffffffffffffffffffffffffffffffffffffffffffffffffffffff",
          "blockHash": "0x4471ec5478e0f40b037017d0a03fe0df2ec69617dca800a9e1d7a1f01774b94e",
          "blockNumber": "0x1ae4879",
          "transactionHash": "0xe50ef8c61b2b3079a56ba29f8602dc71ed61e7263ae0fd38a3f57928f3f8e439",
          "transactionIndex": "0x10",
          "logIndex": "0x80",
          "removed": false
        }
      ],
      "logsBloom": "0x00000000040000000000000000000000000000000000000000000000000000000000000000000000000000000000000000000000800000000000000000200000000000000000000000004000000000000000000000000800000000000000000800002000000000000000000000000000000000000000000000000000000000000000000000000000000000000000000000000000000000000000000000000000020000000000000000000000000000000000000000000000000000000000000000040000000000000000000000000000000000000000000000000000000000000010000000000000000000000020002000000000000000000000000000000000",
      "type": "0x2",
      "transactionHash": "0xe50ef8c61b2b3079a56ba29f8602dc71ed61e7263ae0fd38a3f57928f3f8e439",
      "transactionIndex": "0x10",
      "blockHash": "0x4471ec5478e0f40b037017d0a03fe0df2ec69617dca800a9e1d7a1f01774b94e",
      "blockNumber": "0x1ae4879",
      "gasUsed": "0x96e1",
      "effectiveGasPrice": "0xf428d",
      "from": "0x911d82b108804a18022d0a2621b2fc608def6fca",
      "to": "0x036cbd53842c5426634e7929541ec2318f3dcf7e",
      "contractAddress": null,
      "l1BaseFeeScalar": "0x44d",
      "l1BlobBaseFee": "0xb",
      "l1BlobBaseFeeScalar": "0xa118b",
      "l1Fee": "0x1433af",
      "l1GasPrice": "0xb762e",
      "l1GasUsed": "0x640"
    },
    {
      "status": "0x1",
      "cumulativeGasUsed": "0x2f9066",
      "logs": [
        {
          "address": "0x000000000022d473030f116ddee9f6b43ac78ba3",
          "topics": [
            "0xda9fa7c1b00402c17d0161b249b1ab8bbec047c5a52207b9c112deffd817036b",
            "0x000000000000000000000000911d82b108804a18022d0a2621b2fc608def6fca",
            "0x000000000000000000000000036cbd53842c5426634e7929541ec2318f3dcf7e",
            "0x0000000000000000000000004b2c77d209d3405f41a037ec6c77f7f5b8e2ca80"
          ],
          "data": "0x000000000000000000000000ffffffffffffffffffffffffffffffffffffffff0000000000000000000000000000000000000000000000000000ffffffffffff",
          "blockHash": "0x4471ec5478e0f40b037017d0a03fe0df2ec69617dca800a9e1d7a1f01774b94e",
          "blockNumber": "0x1ae4879",
          "transactionHash": "0x054e1db99f1c13dcf86abe3eb015580ed4648917dc8c53626fb1713eca4208c9",
          "transactionIndex": "0x11",
          "logIndex": "0x81",
          "removed": false
        }
      ],
      "logsBloom": "0x00010000000000010000000000000000000000000000000000000000000000000000000000000000000000000000000000000000000000000008000010080000000000000000000000000000000000000000000000000000000000000000000000002000000000000000000000000000000000000000000000000000000000000020000040000000000000000000000000000000000000000000000000000000000000000000000000000000000000000000000000000000100000080000000000040000000000000000000000000000000000000000000040000000000000000000000000000000000000000040002000000000000000000000000000000400",
      "type": "0x2",
      "transactionHash": "0x054e1db99f1c13dcf86abe3eb015580ed4648917dc8c53626fb1713eca4208c9",
      "transactionIndex": "0x11",
      "blockHash": "0x4471ec5478e0f40b037017d0a03fe0df2ec69617dca800a9e1d7a1f01774b94e",
      "blockNumber": "0x1ae4879",
      "gasUsed": "0x6d0e",
      "effectiveGasPrice": "0xf428d",
      "from": "0x911d82b108804a18022d0a2621b2fc608def6fca",
      "to": "0x000000000022d473030f116ddee9f6b43ac78ba3",
      "contractAddress": null,
      "l1BaseFeeScalar": "0x44d",
      "l1BlobBaseFee": "0xb",
      "l1BlobBaseFeeScalar": "0xa118b",
      "l1Fee": "0x167da8",
      "l1GasPrice": "0xb762e",
      "l1GasUsed": "0x6f5"
    },
    {
      "status": "0x1",
      "cumulativeGasUsed": "0x2ffb0d",
      "logs": [
        {
          "address": "0x5f6d35d1add891416969194709ddd374b6d26253",
          "topics": [
            "0x8c5be1e5ebec7d5bd14f71427d1e84f3dd0314c0f7b2291e5b200ac8c7c3b925",
            "0x000000000000000000000000911d82b108804a18022d0a2621b2fc608def6fca",
            "0x000000000000000000000000000000000022d473030f116ddee9f6b43ac78ba3"
          ],
          "data": "0xffffffffffffffffffffffffffffffffffffffffffffffffffffffffffffffff",
          "blockHash": "0x4471ec5478e0f40b037017d0a03fe0df2ec69617dca800a9e1d7a1f01774b94e",
          "blockNumber": "0x1ae4879",
          "transactionHash": "0xcc0343c53ecff96f8e30cd25668c6a3488e1f31befb6bc742bc24ae317725a4b",
          "transactionIndex": "0x12",
          "logIndex": "0x82",
          "removed": false
        }
      ],
      "logsBloom": "0x00000000000000000000000000000000000000000000000000000000000000000000000000000000000000000000000000000000800000000000000000200000000000000000000000004000000000000000000000000800000000000000000000002000000000000000000000000000000000000000000000000000000000000000000000000000000400000000000000000000000000000000000000000000020000000000000000000040000000000000000000000000000000000000000000040000000000000000000000000000000010000000000000000000000000000010000000000000000000000000002000000000000000000000000000000000",
      "type": "0x2",
      "transactionHash": "0xcc0343c53ecff96f8e30cd25668c6a3488e1f31befb6bc742bc24ae317725a4b",
      "transactionIndex": "0x12",
      "blockHash": "0x4471ec5478e0f40b037017d0a03fe0df2ec69617dca800a9e1d7a1f01774b94e",
      "blockNumber": "0x1ae4879",
      "gasUsed": "0x6aa7",
      "effectiveGasPrice": "0xf428d",
      "from": "0x911d82b108804a18022d0a2621b2fc608def6fca",
      "to": "0x5f6d35d1add891416969194709ddd374b6d26253",
      "contractAddress": null,
      "l1BaseFeeScalar": "0x44d",
      "l1BlobBaseFee": "0xb",
      "l1BlobBaseFeeScalar": "0xa118b",
      "l1Fee": "0x1433af",
      "l1GasPrice": "0xb762e",
      "l1GasUsed": "0x640"
    },
    {
      "status": "0x1",
      "cumulativeGasUsed": "0x30681b",
      "logs": [
        {
          "address": "0x000000000022d473030f116ddee9f6b43ac78ba3",
          "topics": [
            "0xda9fa7c1b00402c17d0161b249b1ab8bbec047c5a52207b9c112deffd817036b",
            "0x000000000000000000000000911d82b108804a18022d0a2621b2fc608def6fca",
            "0x0000000000000000000000005f6d35d1add891416969194709ddd374b6d26253",
            "0x0000000000000000000000004b2c77d209d3405f41a037ec6c77f7f5b8e2ca80"
          ],
          "data": "0x000000000000000000000000ffffffffffffffffffffffffffffffffffffffff0000000000000000000000000000000000000000000000000000ffffffffffff",
          "blockHash": "0x4471ec5478e0f40b037017d0a03fe0df2ec69617dca800a9e1d7a1f01774b94e",
          "blockNumber": "0x1ae4879",
          "transactionHash": "0xa3e3ea142d996312f0f515b56ee9bf009f82dcf0f6462d6a45fa61da70352ce7",
          "transactionIndex": "0x13",
          "logIndex": "0x83",
          "removed": false
        }
      ],
      "logsBloom": "0x00010000000000010000000000010000000000000000000000000000000000000000000000000000000000000040000000000000000000000008000010080000000000000000000000000000000000000000000000000000000000000000000000002000000000000000000000000000000000000000000000000000000000000020000000000000000000000000000000000000000000000000000000000000000000000000000000000000000000000000000000000004000000080000000000040000000000000000000000000000000000000000000040000000000000000000000000000000000000000000002000000000000000000000000000000400",
      "type": "0x2",
      "transactionHash": "0xa3e3ea142d996312f0f515b56ee9bf009f82dcf0f6462d6a45fa61da70352ce7",
      "transactionIndex": "0x13",
      "blockHash": "0x4471ec5478e0f40b037017d0a03fe0df2ec69617dca800a9e1d7a1f01774b94e",
      "blockNumber": "0x1ae4879",
      "gasUsed": "0x6d0e",
      "effectiveGasPrice": "0xf428d",
      "from": "0x911d82b108804a18022d0a2621b2fc608def6fca",
      "to": "0x000000000022d473030f116ddee9f6b43ac78ba3",
      "contractAddress": null,
      "l1BaseFeeScalar": "0x44d",
      "l1BlobBaseFee": "0xb",
      "l1BlobBaseFeeScalar": "0xa118b",
      "l1Fee": "0x167da8",
      "l1GasPrice": "0xb762e",
      "l1GasUsed": "0x6f5"
    },
    {
      "status": "0x1",
      "cumulativeGasUsed": "0x358a17",
      "logs": [
        {
          "address": "0x4b2c77d209d3405f41a037ec6c77f7f5b8e2ca80",
          "topics": [
            "0xddf252ad1be2c89b69c2b068fc378daa952ba7f163c4a11628f55a4df523b3ef",
            "0x0000000000000000000000000000000000000000000000000000000000000000",
            "0x000000000000000000000000911d82b108804a18022d0a2621b2fc608def6fca",
            "0x0000000000000000000000000000000000000000000000000000000000000929"
          ],
          "data": "0x",
          "blockHash": "0x4471ec5478e0f40b037017d0a03fe0df2ec69617dca800a9e1d7a1f01774b94e",
          "blockNumber": "0x1ae4879",
          "transactionHash": "0x30eca7bfa2a08ca9e27ef850a83916b4f51f7249c2a5875508bd38cdbd039513",
          "transactionIndex": "0x14",
          "logIndex": "0x84",
          "removed": false
        },
        {
          "address": "0x05e73354cfdd6745c338b50bcfdfa3aa6fa03408",
          "topics": [
            "0xf208f4912782fd25c7f114ca3723a2d5dd6f3bcc3ac8db5af63baa85f711d5ec",
            "0xbb061a4a6a7a7c0472b15a39812cc6bad12a7b8e381441bdc8ef98faf97aa526",
            "0x0000000000000000000000004b2c77d209d3405f41a037ec6c77f7f5b8e2ca80"
          ],
          "data": "0xffffffffffffffffffffffffffffffffffffffffffffffffffffffffffffff9c0000000000000000000000000000000000000000000000000000000000000064000000000000000000000000000000000000000000000000000000006b8fea540000000000000000000000000000000000000000000000000000000000000929",
          "blockHash": "0x4471ec5478e0f40b037017d0a03fe0df2ec69617dca800a9e1d7a1f01774b94e",
          "blockNumber": "0x1ae4879",
          "transactionHash": "0x30eca7bfa2a08ca9e27ef850a83916b4f51f7249c2a5875508bd38cdbd039513",
          "transactionIndex": "0x14",
          "logIndex": "0x85",
          "removed": false
        },
        {
          "address": "0x036cbd53842c5426634e7929541ec2318f3dcf7e",
          "topics": [
            "0xddf252ad1be2c89b69c2b068fc378daa952ba7f163c4a11628f55a4df523b3ef",
            "0x000000000000000000000000911d82b108804a18022d0a2621b2fc608def6fca",
            "0x00000000000000000000000005e73354cfdd6745c338b50bcfdfa3aa6fa03408"
          ],
          "data": "0x0000000000000000000000000000000000000000000000000000000000895440",
          "blockHash": "0x4471ec5478e0f40b037017d0a03fe0df2ec69617dca800a9e1d7a1f01774b94e",
          "blockNumber": "0x1ae4879",
          "transactionHash": "0x30eca7bfa2a08ca9e27ef850a83916b4f51f7249c2a5875508bd38cdbd039513",
          "transactionIndex": "0x14",
          "logIndex": "0x86",
          "removed": false
        },
        {
          "address": "0x5f6d35d1add891416969194709ddd374b6d26253",
          "topics": [
            "0xddf252ad1be2c89b69c2b068fc378daa952ba7f163c4a11628f55a4df523b3ef",
            "0x000000000000000000000000911d82b108804a18022d0a2621b2fc608def6fca",
            "0x00000000000000000000000005e73354cfdd6745c338b50bcfdfa3aa6fa03408"
          ],
          "data": "0x0000000000000000000000000000000000000000000000000000000000895440",
          "blockHash": "0x4471ec5478e0f40b037017d0a03fe0df2ec69617dca800a9e1d7a1f01774b94e",
          "blockNumber": "0x1ae4879",
          "transactionHash": "0x30eca7bfa2a08ca9e27ef850a83916b4f51f7249c2a5875508bd38cdbd039513",
          "transactionIndex": "0x14",
          "logIndex": "0x87",
          "removed": false
        }
      ],
      "logsBloom": "0x00000000040000010000000000000000000000000100000000000000000000000180000100000800000000000000000000000000000000000008000010000800000000000010000000000008000000000000000000100000000000008000000800002000120000000000000000000800000000000000000000000010008000000000000005000000000400000000000000000000000000000000000000000000000004000000000000000040000000000000000000000000000000000000000000040002001000000000000000000000000010000000000000000400000020000000000000000000000000000820002004000000000000000000000000000000",
      "type": "0x2",
      "transactionHash": "0x30eca7bfa2a08ca9e27ef850a83916b4f51f7249c2a5875508bd38cdbd039513",
      "transactionIndex": "0x14",
      "blockHash": "0x4471ec5478e0f40b037017d0a03fe0df2ec69617dca800a9e1d7a1f01774b94e",
      "blockNumber": "0x1ae4879",
      "gasUsed": "0x521fc",
      "effectiveGasPrice": "0xf428d",
      "from": "0x911d82b108804a18022d0a2621b2fc608def6fca",
      "to": "0x4b2c77d209d3405f41a037ec6c77f7f5b8e2ca80",
      "contractAddress": null,
      "l1BaseFeeScalar": "0x44d",
      "l1BlobBaseFee": "0xb",
      "l1BlobBaseFeeScalar": "0xa118b",
      "l1Fee": "0x349225",
      "l1GasPrice": "0xb762e",
      "l1GasUsed": "0x1043"
    }
  ],
  "libraries": [],
  "pending": [],
  "returns": {},
  "timestamp": 1752166354,
  "chain": 84532,
  "commit": "08cab07"
}