{
  "transactions": [
    {
      "hash": "0x6911087a1ac8adb29131b3870bd2452797954f44a497dd6200b420a90a432ebc",
      "transactionType": "CALL",
      "contractName": null,
      "contractAddress": "0x036cbd53842c5426634e7929541ec2318f3dcf7e",
      "function": "approve(address,uint256)",
      "arguments": [
        "0x000000000022D473030F116dDEE9F6B43aC78BA3",
        "115792089237316195423570985008687907853269984665640564039457584007913129639935"
      ],
      "transaction": {
        "from": "0x911d82b108804a18022d0a2621b2fc608def6fca",
        "to": "0x036cbd53842c5426634e7929541ec2318f3dcf7e",
        "gas": "0xdca8",
        "value": "0x0",
        "input": "0x095ea7b3000000000000000000000000000000000022d473030f116ddee9f6b43ac78ba3ffffffffffffffffffffffffffffffffffffffffffffffffffffffffffffffff",
        "nonce": "0x63",
        "chainId": "0x14a34"
      },
      "additionalContracts": [],
      "isFixedGasLimit": false
    },
    {
      "hash": "0xddd0c5205ec3b1b0e04d2056cc931ed842cc1b18a99401f9b55a5cd5f9a9249b",
      "transactionType": "CALL",
      "contractName": null,
      "contractAddress": "0x000000000022d473030f116ddee9f6b43ac78ba3",
      "function": "approve(address,address,uint160,uint48)",
      "arguments": [
        "0x036CbD53842c5426634e7929541eC2318f3dCF7e",
        "0x4B2C77d209D3405F41a037Ec6c77F7F5b8e2ca80",
        "1461501637330902918203684832716283019655932542975",
        "281474976710655"
      ],
      "transaction": {
        "from": "0x911d82b108804a18022d0a2621b2fc608def6fca",
        "to": "0x000000000022d473030f116ddee9f6b43ac78ba3",
        "gas": "0x96a0",
        "value": "0x0",
        "input": "0x87517c45000000000000000000000000036cbd53842c5426634e7929541ec2318f3dcf7e0000000000000000000000004b2c77d209d3405f41a037ec6c77f7f5b8e2ca80000000000000000000000000ffffffffffffffffffffffffffffffffffffffff0000000000000000000000000000000000000000000000000000ffffffffffff",
        "nonce": "0x64",
        "chainId": "0x14a34"
      },
      "additionalContracts": [],
      "isFixedGasLimit": false
    },
    {
      "hash": "0xf6c4ed80cdb6636e9888efb7c6cfdb6b6f21e41f2c5e1039769016e9fb3b7acb",
      "transactionType": "CALL",
      "contractName": null,
      "contractAddress": "0xcb8734448bd46dd307c24f434180b0f2a6df31f2",
      "function": "approve(address,uint256)",
      "arguments": [
        "0x000000000022D473030F116dDEE9F6B43aC78BA3",
        "115792089237316195423570985008687907853269984665640564039457584007913129639935"
      ],
      "transaction": {
        "from": "0x911d82b108804a18022d0a2621b2fc608def6fca",
        "to": "0xcb8734448bd46dd307c24f434180b0f2a6df31f2",
        "gas": "0x934f",
        "value": "0x0",
        "input": "0x095ea7b3000000000000000000000000000000000022d473030f116ddee9f6b43ac78ba3ffffffffffffffffffffffffffffffffffffffffffffffffffffffffffffffff",
        "nonce": "0x65",
        "chainId": "0x14a34"
      },
      "additionalContracts": [],
      "isFixedGasLimit": false
    },
    {
      "hash": "0x64309d459b856eeb38d1b528de355bff03a931c697c2444750f6424956edab24",
      "transactionType": "CALL",
      "contractName": null,
      "contractAddress": "0x000000000022d473030f116ddee9f6b43ac78ba3",
      "function": "approve(address,address,uint160,uint48)",
      "arguments": [
        "0xCb8734448Bd46dd307c24F434180b0f2a6Df31f2",
        "0x4B2C77d209D3405F41a037Ec6c77F7F5b8e2ca80",
        "1461501637330902918203684832716283019655932542975",
        "281474976710655"
      ],
      "transaction": {
        "from": "0x911d82b108804a18022d0a2621b2fc608def6fca",
        "to": "0x000000000022d473030f116ddee9f6b43ac78ba3",
        "gas": "0x96a0",
        "value": "0x0",
        "input": "0x87517c45000000000000000000000000cb8734448bd46dd307c24f434180b0f2a6df31f20000000000000000000000004b2c77d209d3405f41a037ec6c77f7f5b8e2ca80000000000000000000000000ffffffffffffffffffffffffffffffffffffffff0000000000000000000000000000000000000000000000000000ffffffffffff",
        "nonce": "0x66",
        "chainId": "0x14a34"
      },
      "additionalContracts": [],
      "isFixedGasLimit": false
    },
    {
      "hash": "0x7cf10daa1a1ee00c60da31c2ab66c004f4421d66eaa50357241e9aeb28101fd7",
      "transactionType": "CALL",
      "contractName": null,
      "contractAddress": "0x4b2c77d209d3405f41a037ec6c77f7f5b8e2ca80",
      "function": "modifyLiquidities(bytes,uint256)",
      "arguments": [
        "0x000000000000000000000000000000000000000000000000000000000000004000000000000000000000000000000000000000000000000000000000000000800000000000000000000000000000000000000000000000000000000000000004020d14140000000000000000000000000000000000000000000000000000000000000000000000000000000000000000000000000000000000000000000000040000000000000000000000000000000000000000000000000000000000000080000000000000000000000000000000000000000000000000000000000000024000000000000000000000000000000000000000000000000000000000000002a0000000000000000000000000000000000000000000000000000000000000030000000000000000000000000000000000000000000000000000000000000001a0000000000000000000000000036cbd53842c5426634e7929541ec2318f3dcf7e000000000000000000000000cb8734448bd46dd307c24f434180b0f2a6df31f2000000000000000000000000000000000000000000000000000000000000006400000000000000000000000000000000000000000000000000000000000000010000000000000000000000000000000000000000000000000000000000000000ffffffffffffffffffffffffffffffffffffffffffffffffffffffffffffec780000000000000000000000000000000000000000000000000000000000001388000000000000000000000000000000000000000000000000000000000d7941e30000000000000000000000000000000000000000000000000000000002faf081000000000000000000000000000000000000000000000002b5e3af16b1880001000000000000000000000000911d82b108804a18022d0a2621b2fc608def6fca000000000000000000000000000000000000000000000000000000000000018000000000000000000000000000000000000000000000000000000000000000000000000000000000000000000000000000000000000000000000000000000040000000000000000000000000036cbd53842c5426634e7929541ec2318f3dcf7e000000000000000000000000cb8734448bd46dd307c24f434180b0f2a6df31f20000000000000000000000000000000000000000000000000000000000000040000000000000000000000000036cbd53842c5426634e7929541ec2318f3dcf7e000000000000000000000000911d82b108804a18022d0a2621b2fc608def6fca0000000000000000000000000000000000000000000000000000000000000040000000000000000000000000cb8734448bd46dd307c24f434180b0f2a6df31f2000000000000000000000000911d82b108804a18022d0a2621b2fc608def6fca",
        "1752166810"
      ],
      "transaction": {
        "from": "0x911d82b108804a18022d0a2621b2fc608def6fca",
        "to": "0x4b2c77d209d3405f41a037ec6c77f7f5b8e2ca80",
        "gas": "0x56991",
        "value": "0x0",
        "input": "0xdd46508f000000000000000000000000000000000000000000000000000000000000004000000000000000000000000000000000000000000000000000000000686ff19a0000000000000000000000000000000000000000000000000000000000000400000000000000000000000000000000000000000000000000000000000000004000000000000000000000000000000000000000000000000000000000000000800000000000000000000000000000000000000000000000000000000000000004020d14140000000000000000000000000000000000000000000000000000000000000000000000000000000000000000000000000000000000000000000000040000000000000000000000000000000000000000000000000000000000000080000000000000000000000000000000000000000000000000000000000000024000000000000000000000000000000000000000000000000000000000000002a0000000000000000000000000000000000000000000000000000000000000030000000000000000000000000000000000000000000000000000000000000001a0000000000000000000000000036cbd53842c5426634e7929541ec2318f3dcf7e000000000000000000000000cb8734448bd46dd307c24f434180b0f2a6df31f2000000000000000000000000000000000000000000000000000000000000006400000000000000000000000000000000000000000000000000000000000000010000000000000000000000000000000000000000000000000000000000000000ffffffffffffffffffffffffffffffffffffffffffffffffffffffffffffec780000000000000000000000000000000000000000000000000000000000001388000000000000000000000000000000000000000000000000000000000d7941e30000000000000000000000000000000000000000000000000000000002faf081000000000000000000000000000000000000000000000002b5e3af16b1880001000000000000000000000000911d82b108804a18022d0a2621b2fc608def6fca000000000000000000000000000000000000000000000000000000000000018000000000000000000000000000000000000000000000000000000000000000000000000000000000000000000000000000000000000000000000000000000040000000000000000000000000036cbd53842c5426634e7929541ec2318f3dcf7e000000000000000000000000cb8734448bd46dd307c24f434180b0f2a6df31f20000000000000000000000000000000000000000000000000000000000000040000000000000000000000000036cbd53842c5426634e7929541ec2318f3dcf7e000000000000000000000000911d82b108804a18022d0a2621b2fc608def6fca0000000000000000000000000000000000000000000000000000000000000040000000000000000000000000cb8734448bd46dd307c24f434180b0f2a6df31f2000000000000000000000000911d82b108804a18022d0a2621b2fc608def6fca",
        "nonce": "0x67",
        "chainId": "0x14a34"
      },
      "additionalContracts": [],
      "isFixedGasLimit": false
    }
  ],
  "receipts": [
    {
      "status": "0x1",
      "cumulativeGasUsed": "0x66c6bf",
      "logs": [
        {
          "address": "0x036cbd53842c5426634e7929541ec2318f3dcf7e",
          "topics": [
            "0x8c5be1e5ebec7d5bd14f71427d1e84f3dd0314c0f7b2291e5b200ac8c7c3b925",
            "0x000000000000000000000000911d82b108804a18022d0a2621b2fc608def6fca",
            "0x000000000000000000000000000000000022d473030f116ddee9f6b43ac78ba3"
          ],
          "data": "0xffffffffffffffffffffffffffffffffffffffffffffffffffffffffffffffff",
          "blockHash": "0xe5db40c4d73aaa65668a2146549df92c0123ca8423a2b6f9c4bcf17bf06ea83c",
          "blockNumber": "0x1ae425a",
          "transactionHash": "0x6911087a1ac8adb29131b3870bd2452797954f44a497dd6200b420a90a432ebc",
          "transactionIndex": "0x20",
          "logIndex": "0xfc",
          "removed": false
        }
      ],
      "logsBloom": "0x00000000040000000000000000000000000000000000000000000000000000000000000000000000000000000000000000000000800000000000000000200000000000000000000000004000000000000000000000000800000000000000000800002000000000000000000000000000000000000000000000000000000000000000000000000000000000000000000000000000000000000000000000000000020000000000000000000000000000000000000000000000000000000000000000040000000000000000000000000000000000000000000000000000000000000010000000000000000000000020002000000000000000000000000000000000",
      "type": "0x2",
      "transactionHash": "0x6911087a1ac8adb29131b3870bd2452797954f44a497dd6200b420a90a432ebc",
      "transactionIndex": "0x20",
      "blockHash": "0xe5db40c4d73aaa65668a2146549df92c0123ca8423a2b6f9c4bcf17bf06ea83c",
      "blockNumber": "0x1ae425a",
      "gasUsed": "0x96e1",
      "effectiveGasPrice": "0xf4297",
      "from": "0x911d82b108804a18022d0a2621b2fc608def6fca",
      "to": "0x036cbd53842c5426634e7929541ec2318f3dcf7e",
      "contractAddress": null,
      "l1BaseFeeScalar": "0x44d",
      "l1BlobBaseFee": "0x1",
      "l1BlobBaseFeeScalar": "0xa118b",
      "l1Fee": "0x131ef0",
      "l1GasPrice": "0xada8b",
      "l1GasUsed": "0x640"
    },
    {
      "status": "0x1",
      "cumulativeGasUsed": "0x6733cd",
      "logs": [
        {
          "address": "0x000000000022d473030f116ddee9f6b43ac78ba3",
          "topics": [
            "0xda9fa7c1b00402c17d0161b249b1ab8bbec047c5a52207b9c112deffd817036b",
            "0x000000000000000000000000911d82b108804a18022d0a2621b2fc608def6fca",
            "0x000000000000000000000000036cbd53842c5426634e7929541ec2318f3dcf7e",
            "0x0000000000000000000000004b2c77d209d3405f41a037ec6c77f7f5b8e2ca80"
          ],
          "data": "0x000000000000000000000000ffffffffffffffffffffffffffffffffffffffff0000000000000000000000000000000000000000000000000000ffffffffffff",
          "blockHash": "0xe5db40c4d73aaa65668a2146549df92c0123ca8423a2b6f9c4bcf17bf06ea83c",
          "blockNumber": "0x1ae425a",
          "transactionHash": "0xddd0c5205ec3b1b0e04d2056cc931ed842cc1b18a99401f9b55a5cd5f9a9249b",
          "transactionIndex": "0x21",
          "logIndex": "0xfd",
          "removed": false
        }
      ],
      "logsBloom": "0x00010000000000010000000000000000000000000000000000000000000000000000000000000000000000000000000000000000000000000008000010080000000000000000000000000000000000000000000000000000000000000000000000002000000000000000000000000000000000000000000000000000000000000020000040000000000000000000000000000000000000000000000000000000000000000000000000000000000000000000000000000000100000080000000000040000000000000000000000000000000000000000000040000000000000000000000000000000000000000040002000000000000000000000000000000400",
      "type": "0x2",
      "transactionHash": "0xddd0c5205ec3b1b0e04d2056cc931ed842cc1b18a99401f9b55a5cd5f9a9249b",
      "transactionIndex": "0x21",
      "blockHash": "0xe5db40c4d73aaa65668a2146549df92c0123ca8423a2b6f9c4bcf17bf06ea83c",
      "blockNumber": "0x1ae425a",
      "gasUsed": "0x6d0e",
      "effectiveGasPrice": "0xf4297",
      "from": "0x911d82b108804a18022d0a2621b2fc608def6fca",
      "to": "0x000000000022d473030f116ddee9f6b43ac78ba3",
      "contractAddress": null,
      "l1BaseFeeScalar": "0x44d",
      "l1BlobBaseFee": "0x1",
      "l1BlobBaseFeeScalar": "0xa118b",
      "l1Fee": "0x15498e",
      "l1GasPrice": "0xada8b",
      "l1GasUsed": "0x6f5"
    },
    {
      "status": "0x1",
      "cumulativeGasUsed": "0x679e74",
      "logs": [
        {
          "address": "0xcb8734448bd46dd307c24f434180b0f2a6df31f2",
          "topics": [
            "0x8c5be1e5ebec7d5bd14f71427d1e84f3dd0314c0f7b2291e5b200ac8c7c3b925",
            "0x000000000000000000000000911d82b108804a18022d0a2621b2fc608def6fca",
            "0x000000000000000000000000000000000022d473030f116ddee9f6b43ac78ba3"
          ],
          "data": "0xffffffffffffffffffffffffffffffffffffffffffffffffffffffffffffffff",
          "blockHash": "0xe5db40c4d73aaa65668a2146549df92c0123ca8423a2b6f9c4bcf17bf06ea83c",
          "blockNumber": "0x1ae425a",
          "transactionHash": "0xf6c4ed80cdb6636e9888efb7c6cfdb6b6f21e41f2c5e1039769016e9fb3b7acb",
          "transactionIndex": "0x22",
          "logIndex": "0xfe",
          "removed": false
        }
      ],
      "logsBloom": "0x00000000000000000000000000000000000000000000000000000000000000000000000000000000000000000000000000000000800020000000000000200000000000000000000000004000000000000000000000000800000000000000000000002000000000000000000000000000000000000000000000000000000000000000000000000000000000000000000000000000000000000000000000000000420000000000000000000000000000000000000000000000000000000000000000040000000000000000000000000000000000000000000000000000000000000010000000000000000000000000002000000020000000000000000000000000",
      "type": "0x2",
      "transactionHash": "0xf6c4ed80cdb6636e9888efb7c6cfdb6b6f21e41f2c5e1039769016e9fb3b7acb",
      "transactionIndex": "0x22",
      "blockHash": "0xe5db40c4d73aaa65668a2146549df92c0123ca8423a2b6f9c4bcf17bf06ea83c",
      "blockNumber": "0x1ae425a",
      "gasUsed": "0x6aa7",
      "effectiveGasPrice": "0xf4297",
      "from": "0x911d82b108804a18022d0a2621b2fc608def6fca",
      "to": "0xcb8734448bd46dd307c24f434180b0f2a6df31f2",
      "contractAddress": null,
      "l1BaseFeeScalar": "0x44d",
      "l1BlobBaseFee": "0x1",
      "l1BlobBaseFeeScalar": "0xa118b",
      "l1Fee": "0x131ef0",
      "l1GasPrice": "0xada8b",
      "l1GasUsed": "0x640"
    },
    {
      "status": "0x1",
      "cumulativeGasUsed": "0x680b82",
      "logs": [
        {
          "address": "0x000000000022d473030f116ddee9f6b43ac78ba3",
          "topics": [
            "0xda9fa7c1b00402c17d0161b249b1ab8bbec047c5a52207b9c112deffd817036b",
            "0x000000000000000000000000911d82b108804a18022d0a2621b2fc608def6fca",
            "0x000000000000000000000000cb8734448bd46dd307c24f434180b0f2a6df31f2",
            "0x0000000000000000000000004b2c77d209d3405f41a037ec6c77f7f5b8e2ca80"
          ],
          "data": "0x000000000000000000000000ffffffffffffffffffffffffffffffffffffffff0000000000000000000000000000000000000000000000000000ffffffffffff",
          "blockHash": "0xe5db40c4d73aaa65668a2146549df92c0123ca8423a2b6f9c4bcf17bf06ea83c",
          "blockNumber": "0x1ae425a",
          "transactionHash": "0x64309d459b856eeb38d1b528de355bff03a931c697c2444750f6424956edab24",
          "transactionIndex": "0x23",
          "logIndex": "0xff",
          "removed": false
        }
      ],
      "logsBloom": "0x00010000000000010000000000000000000000000000000000000000080000000000000000000000000000000200000000000000000000000008000010080000000000000000000000000000000000000000000000000000000000000000000000002000000000000000000000000000000000000000000000000000000000000020000000000000000000000000000000000000000000000000000000000000000000000000000000000000000000000000000000000000000000080000000000040000000000000000000000000000000000000000000040000000000000000000000000000000000000000000002000000000000000000040000000000400",
      "type": "0x2",
      "transactionHash": "0x64309d459b856eeb38d1b528de355bff03a931c697c2444750f6424956edab24",
      "transactionIndex": "0x23",
      "blockHash": "0xe5db40c4d73aaa65668a2146549df92c0123ca8423a2b6f9c4bcf17bf06ea83c",
      "blockNumber": "0x1ae425a",
      "gasUsed": "0x6d0e",
      "effectiveGasPrice": "0xf4297",
      "from": "0x911d82b108804a18022d0a2621b2fc608def6fca",
      "to": "0x000000000022d473030f116ddee9f6b43ac78ba3",
      "contractAddress": null,
      "l1BaseFeeScalar": "0x44d",
      "l1BlobBaseFee": "0x1",
      "l1BlobBaseFeeScalar": "0xa118b",
      "l1Fee": "0x15498e",
      "l1GasPrice": "0xada8b",
      "l1GasUsed": "0x6f5"
    },
    {
      "status": "0x1",
      "cumulativeGasUsed": "0x6bf6a2",
      "logs": [
        {
          "address": "0x4b2c77d209d3405f41a037ec6c77f7f5b8e2ca80",
          "topics": [
            "0xddf252ad1be2c89b69c2b068fc378daa952ba7f163c4a11628f55a4df523b3ef",
            "0x0000000000000000000000000000000000000000000000000000000000000000",
            "0x000000000000000000000000911d82b108804a18022d0a2621b2fc608def6fca",
            "0x0000000000000000000000000000000000000000000000000000000000000927"
          ],
          "data": "0x",
          "blockHash": "0xe5db40c4d73aaa65668a2146549df92c0123ca8423a2b6f9c4bcf17bf06ea83c",
          "blockNumber": "0x1ae425a",
          "transactionHash": "0x7cf10daa1a1ee00c60da31c2ab66c004f4421d66eaa50357241e9aeb28101fd7",
          "transactionIndex": "0x24",
          "logIndex": "0x100",
          "removed": false
        },
        {
          "address": "0x05e73354cfdd6745c338b50bcfdfa3aa6fa03408",
          "topics": [
            "0xf208f4912782fd25c7f114ca3723a2d5dd6f3bcc3ac8db5af63baa85f711d5ec",
            "0xc118cf4590c1da5eb44904b582d76dbf28d65f09bae29d7079e71ce047466b06",
            "0x0000000000000000000000004b2c77d209d3405f41a037ec6c77f7f5b8e2ca80"
          ],
          "data": "0xffffffffffffffffffffffffffffffffffffffffffffffffffffffffffffec780000000000000000000000000000000000000000000000000000000000001388000000000000000000000000000000000000000000000000000000000d7941e30000000000000000000000000000000000000000000000000000000000000927",
          "blockHash": "0xe5db40c4d73aaa65668a2146549df92c0123ca8423a2b6f9c4bcf17bf06ea83c",
          "blockNumber": "0x1ae425a",
          "transactionHash": "0x7cf10daa1a1ee00c60da31c2ab66c004f4421d66eaa50357241e9aeb28101fd7",
          "transactionIndex": "0x24",
          "logIndex": "0x101",
          "removed": false
        },
        {
          "address": "0x036cbd53842c5426634e7929541ec2318f3dcf7e",
          "topics": [
            "0xddf252ad1be2c89b69c2b068fc378daa952ba7f163c4a11628f55a4df523b3ef",
            "0x000000000000000000000000911d82b108804a18022d0a2621b2fc608def6fca",
            "0x00000000000000000000000005e73354cfdd6745c338b50bcfdfa3aa6fa03408"
          ],
          "data": "0x0000000000000000000000000000000000000000000000000000000002faf080",
          "blockHash": "0xe5db40c4d73aaa65668a2146549df92c0123ca8423a2b6f9c4bcf17bf06ea83c",
          "blockNumber": "0x1ae425a",
          "transactionHash": "0x7cf10daa1a1ee00c60da31c2ab66c004f4421d66eaa50357241e9aeb28101fd7",
          "transactionIndex": "0x24",
          "logIndex": "0x102",
          "removed": false
        },
        {
          "address": "0xcb8734448bd46dd307c24f434180b0f2a6df31f2",
          "topics": [
            "0xddf252ad1be2c89b69c2b068fc378daa952ba7f163c4a11628f55a4df523b3ef",
            "0x000000000000000000000000911d82b108804a18022d0a2621b2fc608def6fca",
            "0x00000000000000000000000005e73354cfdd6745c338b50bcfdfa3aa6fa03408"
          ],
          "data": "0x0000000000000000000000000000000000000000000000000000000002faf080",
          "blockHash": "0xe5db40c4d73aaa65668a2146549df92c0123ca8423a2b6f9c4bcf17bf06ea83c",
          "blockNumber": "0x1ae425a",
          "transactionHash": "0x7cf10daa1a1ee00c60da31c2ab66c004f4421d66eaa50357241e9aeb28101fd7",
          "transactionIndex": "0x24",
          "logIndex": "0x103",
          "removed": false
        }
      ],
      "logsBloom": "0x00000000040000010000000000000000000000000000000000000000000000000108000100000000000000000000000000000000000020000008000010100800000000000010000000000008000000000000000000100000000001008000000800002000030000002000000000000800000000000000000000000010000000000000000005000000000000000000000000000000000000000000400000000000400004000000000000000000000000000000000000000000000000000000000000040002001000000000000000000000000000000000000000000000000020000000000000000000000000000820002004000020000000000000000000000000",
      "type": "0x2",
      "transactionHash": "0x7cf10daa1a1ee00c60da31c2ab66c004f4421d66eaa50357241e9aeb28101fd7",
      "transactionIndex": "0x24",
      "blockHash": "0xe5db40c4d73aaa65668a2146549df92c0123ca8423a2b6f9c4bcf17bf06ea83c",
      "blockNumber": "0x1ae425a",
      "gasUsed": "0x3eb20",
      "effectiveGasPrice": "0xf4297",
      "from": "0x911d82b108804a18022d0a2621b2fc608def6fca",
      "to": "0x4b2c77d209d3405f41a037ec6c77f7f5b8e2ca80",
      "contractAddress": null,
      "l1BaseFeeScalar": "0x44d",
      "l1BlobBaseFee": "0x1",
      "l1BlobBaseFeeScalar": "0xa118b",
      "l1Fee": "0x34511c",
      "l1GasPrice": "0xada8b",
      "l1GasUsed": "0x1119"
    }
  ],
  "libraries": [],
  "pending": [],
  "returns": {},
  "timestamp": 1752163221,
  "chain": 84532,
  "commit": "1f47b46"
}